{
	"dns.sol": {
		"DomainRegistry": {
			"abi": [
				{
					"inputs": [],
					"stateMutability": "nonpayable",
					"type": "constructor"
				},
				{
					"inputs": [],
					"name": "contractOwner",
					"outputs": [
						{
							"internalType": "address",
							"name": "",
							"type": "address"
						}
					],
					"stateMutability": "view",
					"type": "function"
				},
				{
					"inputs": [
						{
							"internalType": "bytes32",
							"name": "",
							"type": "bytes32"
						}
					],
					"name": "domains",
					"outputs": [
						{
							"internalType": "address",
							"name": "owner",
							"type": "address"
						},
						{
							"internalType": "string",
							"name": "ipv4",
							"type": "string"
						},
						{
							"internalType": "uint256",
							"name": "expiration",
							"type": "uint256"
						}
					],
					"stateMutability": "view",
					"type": "function"
				},
				{
					"inputs": [
						{
							"internalType": "string",
							"name": "domain",
							"type": "string"
						}
					],
					"name": "namehash",
					"outputs": [
						{
							"internalType": "bytes32",
							"name": "",
							"type": "bytes32"
						}
					],
					"stateMutability": "pure",
					"type": "function"
				},
				{
					"inputs": [
						{
							"internalType": "string",
							"name": "domain",
							"type": "string"
						},
						{
							"internalType": "string",
							"name": "ipv4",
							"type": "string"
						}
					],
					"name": "registerDomain",
					"outputs": [],
					"stateMutability": "payable",
					"type": "function"
				},
				{
					"inputs": [],
					"name": "registrationFee",
					"outputs": [
						{
							"internalType": "uint256",
							"name": "",
							"type": "uint256"
						}
					],
					"stateMutability": "view",
					"type": "function"
				},
				{
					"inputs": [
						{
							"internalType": "string",
							"name": "domain",
							"type": "string"
						}
					],
					"name": "renewDomain",
					"outputs": [],
					"stateMutability": "nonpayable",
					"type": "function"
				},
				{
					"inputs": [
						{
							"internalType": "string",
							"name": "domain",
							"type": "string"
						}
					],
					"name": "resolveDomain",
					"outputs": [
						{
							"internalType": "string",
							"name": "",
							"type": "string"
						}
					],
					"stateMutability": "view",
					"type": "function"
				},
				{
					"inputs": [
						{
							"internalType": "string",
							"name": "domain",
							"type": "string"
						},
						{
							"internalType": "address",
							"name": "newOwner",
							"type": "address"
						}
					],
					"name": "transferDomain",
					"outputs": [],
					"stateMutability": "nonpayable",
					"type": "function"
				}
			],
			"devdoc": {
				"kind": "dev",
				"methods": {},
				"version": 1
			},
			"evm": {
				"assembly": "    /* \"dns.sol\":125:2076  contract DomainRegistry {... */\n  mstore(0x40, 0x80)\n    /* \"dns.sol\":466:476  0.01 ether */\n  0x2386f26fc10000\n    /* \"dns.sol\":433:476  uint256 public registrationFee = 0.01 ether */\n  0x01\n  sstore\n    /* \"dns.sol\":522:581  constructor() {... */\n  callvalue\n  dup1\n  iszero\n  tag_1\n  jumpi\n  0x00\n  dup1\n  revert\ntag_1:\n  pop\n    /* \"dns.sol\":563:573  msg.sender */\n  caller\n    /* \"dns.sol\":547:560  contractOwner */\n  0x02\n  0x00\n    /* \"dns.sol\":547:573  contractOwner = msg.sender */\n  0x0100\n  exp\n  dup2\n  sload\n  dup2\n  0xffffffffffffffffffffffffffffffffffffffff\n  mul\n  not\n  and\n  swap1\n  dup4\n  0xffffffffffffffffffffffffffffffffffffffff\n  and\n  mul\n  or\n  swap1\n  sstore\n  pop\n    /* \"dns.sol\":125:2076  contract DomainRegistry {... */\n  dataSize(sub_0)\n  dup1\n  dataOffset(sub_0)\n  0x00\n  codecopy\n  0x00\n  return\nstop\n\nsub_0: assembly {\n        /* \"dns.sol\":125:2076  contract DomainRegistry {... */\n      mstore(0x40, 0x80)\n      jumpi(tag_1, lt(calldatasize, 0x04))\n      shr(0xe0, calldataload(0x00))\n      dup1\n      0x87a3d555\n      gt\n      tag_10\n      jumpi\n      dup1\n      0x87a3d555\n      eq\n      tag_6\n      jumpi\n      dup1\n      0xc722f177\n      eq\n      tag_7\n      jumpi\n      dup1\n      0xce606ee0\n      eq\n      tag_8\n      jumpi\n      dup1\n      0xf5fb9de3\n      eq\n      tag_9\n      jumpi\n      jump(tag_1)\n    tag_10:\n      dup1\n      0x09879962\n      eq\n      tag_2\n      jumpi\n      dup1\n      0x14c44e09\n      eq\n      tag_3\n      jumpi\n      dup1\n      0x19fbe87e\n      eq\n      tag_4\n      jumpi\n      dup1\n      0x364460f3\n      eq\n      tag_5\n      jumpi\n    tag_1:\n      0x00\n      dup1\n      revert\n        /* \"dns.sol\":1942:2073  function namehash(string memory domain) public pure returns (bytes32) {... */\n    tag_2:\n      callvalue\n      dup1\n      iszero\n      tag_11\n      jumpi\n      0x00\n      dup1\n      revert\n    tag_11:\n      pop\n      tag_12\n      0x04\n      dup1\n      calldatasize\n      sub\n      dup2\n      add\n      swap1\n      tag_13\n      swap2\n      swap1\n      tag_14\n      jump\t// in\n    tag_13:\n      tag_15\n      jump\t// in\n    tag_12:\n      mload(0x40)\n      tag_16\n      swap2\n      swap1\n      tag_17\n      jump\t// in\n    tag_16:\n      mload(0x40)\n      dup1\n      swap2\n      sub\n      swap1\n      return\n        /* \"dns.sol\":433:476  uint256 public registrationFee = 0.01 ether */\n    tag_3:\n      callvalue\n      dup1\n      iszero\n      tag_18\n      jumpi\n      0x00\n      dup1\n      revert\n    tag_18:\n      pop\n      tag_19\n      tag_20\n      jump\t// in\n    tag_19:\n      mload(0x40)\n      tag_21\n      swap2\n      swap1\n      tag_22\n      jump\t// in\n    tag_21:\n      mload(0x40)\n      dup1\n      swap2\n      sub\n      swap1\n      return\n        /* \"dns.sol\":1442:1695  function transferDomain(string memory domain, address newOwner) public {... */\n    tag_4:\n      callvalue\n      dup1\n      iszero\n      tag_23\n      jumpi\n      0x00\n      dup1\n      revert\n    tag_23:\n      pop\n      tag_24\n      0x04\n      dup1\n      calldatasize\n      sub\n      dup2\n      add\n      swap1\n      tag_25\n      swap2\n      swap1\n      tag_26\n      jump\t// in\n    tag_25:\n      tag_27\n      jump\t// in\n    tag_24:\n      stop\n        /* \"dns.sol\":1704:1933  function resolveDomain(string memory domain) public view returns (string memory) {... */\n    tag_5:\n      callvalue\n      dup1\n      iszero\n      tag_28\n      jumpi\n      0x00\n      dup1\n      revert\n    tag_28:\n      pop\n      tag_29\n      0x04\n      dup1\n      calldatasize\n      sub\n      dup2\n      add\n      swap1\n      tag_30\n      swap2\n      swap1\n      tag_14\n      jump\t// in\n    tag_30:\n      tag_31\n      jump\t// in\n    tag_29:\n      mload(0x40)\n      tag_32\n      swap2\n      swap1\n      tag_33\n      jump\t// in\n    tag_32:\n      mload(0x40)\n      dup1\n      swap2\n      sub\n      swap1\n      return\n        /* \"dns.sol\":590:1186  function registerDomain(string memory domain, string memory ipv4) public payable {... */\n    tag_6:\n      tag_34\n      0x04\n      dup1\n      calldatasize\n      sub\n      dup2\n      add\n      swap1\n      tag_35\n      swap2\n      swap1\n      tag_36\n      jump\t// in\n    tag_35:\n      tag_37\n      jump\t// in\n    tag_34:\n      stop\n        /* \"dns.sol\":262:303  mapping(bytes32 => Domain) public domains */\n    tag_7:\n      callvalue\n      dup1\n      iszero\n      tag_38\n      jumpi\n      0x00\n      dup1\n      revert\n    tag_38:\n      pop\n      tag_39\n      0x04\n      dup1\n      calldatasize\n      sub\n      dup2\n      add\n      swap1\n      tag_40\n      swap2\n      swap1\n      tag_41\n      jump\t// in\n    tag_40:\n      tag_42\n      jump\t// in\n    tag_39:\n      mload(0x40)\n      tag_43\n      swap4\n      swap3\n      swap2\n      swap1\n      tag_44\n      jump\t// in\n    tag_43:\n      mload(0x40)\n      dup1\n      swap2\n      sub\n      swap1\n      return\n        /* \"dns.sol\":485:513  address public contractOwner */\n    tag_8:\n      callvalue\n      dup1\n      iszero\n      tag_45\n      jumpi\n      0x00\n      dup1\n      revert\n    tag_45:\n      pop\n      tag_46\n      tag_47\n      jump\t// in\n    tag_46:\n      mload(0x40)\n      tag_48\n      swap2\n      swap1\n      tag_49\n      jump\t// in\n    tag_48:\n      mload(0x40)\n      dup1\n      swap2\n      sub\n      swap1\n      return\n        /* \"dns.sol\":1195:1433  function renewDomain(string memory domain) public {... */\n    tag_9:\n      callvalue\n      dup1\n      iszero\n      tag_50\n      jumpi\n      0x00\n      dup1\n      revert\n    tag_50:\n      pop\n      tag_51\n      0x04\n      dup1\n      calldatasize\n      sub\n      dup2\n      add\n      swap1\n      tag_52\n      swap2\n      swap1\n      tag_14\n      jump\t// in\n    tag_52:\n      tag_53\n      jump\t// in\n    tag_51:\n      stop\n        /* \"dns.sol\":1942:2073  function namehash(string memory domain) public pure returns (bytes32) {... */\n    tag_15:\n        /* \"dns.sol\":2003:2010  bytes32 */\n      0x00\n        /* \"dns.sol\":2057:2063  domain */\n      dup2\n        /* \"dns.sol\":2040:2064  abi.encodePacked(domain) */\n      add(0x20, mload(0x40))\n      tag_55\n      swap2\n      swap1\n      tag_56\n      jump\t// in\n    tag_55:\n      mload(0x40)\n      0x20\n      dup2\n      dup4\n      sub\n      sub\n      dup2\n      mstore\n      swap1\n      0x40\n      mstore\n        /* \"dns.sol\":2030:2065  keccak256(abi.encodePacked(domain)) */\n      dup1\n      mload\n      swap1\n      0x20\n      add\n      keccak256\n        /* \"dns.sol\":2023:2065  return keccak256(abi.encodePacked(domain)) */\n      swap1\n      pop\n        /* \"dns.sol\":1942:2073  function namehash(string memory domain) public pure returns (bytes32) {... */\n      swap2\n      swap1\n      pop\n      jump\t// out\n        /* \"dns.sol\":433:476  uint256 public registrationFee = 0.01 ether */\n    tag_20:\n      sload(0x01)\n      dup2\n      jump\t// out\n        /* \"dns.sol\":1442:1695  function transferDomain(string memory domain, address newOwner) public {... */\n    tag_27:\n        /* \"dns.sol\":1524:1542  bytes32 domainHash */\n      0x00\n        /* \"dns.sol\":1545:1561  namehash(domain) */\n      tag_58\n        /* \"dns.sol\":1554:1560  domain */\n      dup4\n        /* \"dns.sol\":1545:1553  namehash */\n      tag_15\n        /* \"dns.sol\":1545:1561  namehash(domain) */\n      jump\t// in\n    tag_58:\n        /* \"dns.sol\":1524:1561  bytes32 domainHash = namehash(domain) */\n      swap1\n      pop\n        /* \"dns.sol\":1609:1619  msg.sender */\n      caller\n        /* \"dns.sol\":1580:1619  domains[domainHash].owner == msg.sender */\n      0xffffffffffffffffffffffffffffffffffffffff\n      and\n        /* \"dns.sol\":1580:1587  domains */\n      0x00\n        /* \"dns.sol\":1580:1599  domains[domainHash] */\n      dup1\n        /* \"dns.sol\":1588:1598  domainHash */\n      dup4\n        /* \"dns.sol\":1580:1599  domains[domainHash] */\n      dup2\n      mstore\n      0x20\n      add\n      swap1\n      dup2\n      mstore\n      0x20\n      add\n      0x00\n      keccak256\n        /* \"dns.sol\":1580:1605  domains[domainHash].owner */\n      0x00\n      add\n      0x00\n      swap1\n      sload\n      swap1\n      0x0100\n      exp\n      swap1\n      div\n      0xffffffffffffffffffffffffffffffffffffffff\n      and\n        /* \"dns.sol\":1580:1619  domains[domainHash].owner == msg.sender */\n      0xffffffffffffffffffffffffffffffffffffffff\n      and\n      eq\n        /* \"dns.sol\":1572:1637  require(domains[domainHash].owner == msg.sender, \"Not the owner\") */\n      tag_59\n      jumpi\n      mload(0x40)\n      0x08c379a000000000000000000000000000000000000000000000000000000000\n      dup2\n      mstore\n      0x04\n      add\n      tag_60\n      swap1\n      tag_61\n      jump\t// in\n    tag_60:\n      mload(0x40)\n      dup1\n      swap2\n      sub\n      swap1\n      revert\n    tag_59:\n        /* \"dns.sol\":1679:1687  newOwner */\n      dup2\n        /* \"dns.sol\":1651:1658  domains */\n      0x00\n        /* \"dns.sol\":1651:1670  domains[domainHash] */\n      dup1\n        /* \"dns.sol\":1659:1669  domainHash */\n      dup4\n        /* \"dns.sol\":1651:1670  domains[domainHash] */\n      dup2\n      mstore\n      0x20\n      add\n      swap1\n      dup2\n      mstore\n      0x20\n      add\n      0x00\n      keccak256\n        /* \"dns.sol\":1651:1676  domains[domainHash].owner */\n      0x00\n      add\n      0x00\n        /* \"dns.sol\":1651:1687  domains[domainHash].owner = newOwner */\n      0x0100\n      exp\n      dup2\n      sload\n      dup2\n      0xffffffffffffffffffffffffffffffffffffffff\n      mul\n      not\n      and\n      swap1\n      dup4\n      0xffffffffffffffffffffffffffffffffffffffff\n      and\n      mul\n      or\n      swap1\n      sstore\n      pop\n        /* \"dns.sol\":1513:1695  {... */\n      pop\n        /* \"dns.sol\":1442:1695  function transferDomain(string memory domain, address newOwner) public {... */\n      pop\n      pop\n      jump\t// out\n        /* \"dns.sol\":1704:1933  function resolveDomain(string memory domain) public view returns (string memory) {... */\n    tag_31:\n        /* \"dns.sol\":1770:1783  string memory */\n      0x60\n        /* \"dns.sol\":1796:1814  bytes32 domainHash */\n      0x00\n        /* \"dns.sol\":1817:1833  namehash(domain) */\n      tag_63\n        /* \"dns.sol\":1826:1832  domain */\n      dup4\n        /* \"dns.sol\":1817:1825  namehash */\n      tag_15\n        /* \"dns.sol\":1817:1833  namehash(domain) */\n      jump\t// in\n    tag_63:\n        /* \"dns.sol\":1796:1833  bytes32 domainHash = namehash(domain) */\n      swap1\n      pop\n        /* \"dns.sol\":1844:1868  Domain memory domainData */\n      0x00\n        /* \"dns.sol\":1871:1878  domains */\n      dup1\n        /* \"dns.sol\":1871:1890  domains[domainHash] */\n      0x00\n        /* \"dns.sol\":1879:1889  domainHash */\n      dup4\n        /* \"dns.sol\":1871:1890  domains[domainHash] */\n      dup2\n      mstore\n      0x20\n      add\n      swap1\n      dup2\n      mstore\n      0x20\n      add\n      0x00\n      keccak256\n        /* \"dns.sol\":1844:1890  Domain memory domainData = domains[domainHash] */\n      mload(0x40)\n      dup1\n      0x60\n      add\n      0x40\n      mstore\n      swap1\n      dup2\n      0x00\n      dup3\n      add\n      0x00\n      swap1\n      sload\n      swap1\n      0x0100\n      exp\n      swap1\n      div\n      0xffffffffffffffffffffffffffffffffffffffff\n      and\n      0xffffffffffffffffffffffffffffffffffffffff\n      and\n      0xffffffffffffffffffffffffffffffffffffffff\n      and\n      dup2\n      mstore\n      0x20\n      add\n      0x01\n      dup3\n      add\n      dup1\n      sload\n      tag_64\n      swap1\n      tag_65\n      jump\t// in\n    tag_64:\n      dup1\n      0x1f\n      add\n      0x20\n      dup1\n      swap2\n      div\n      mul\n      0x20\n      add\n      mload(0x40)\n      swap1\n      dup2\n      add\n      0x40\n      mstore\n      dup1\n      swap3\n      swap2\n      swap1\n      dup2\n      dup2\n      mstore\n      0x20\n      add\n      dup3\n      dup1\n      sload\n      tag_66\n      swap1\n      tag_65\n      jump\t// in\n    tag_66:\n      dup1\n      iszero\n      tag_67\n      jumpi\n      dup1\n      0x1f\n      lt\n      tag_68\n      jumpi\n      0x0100\n      dup1\n      dup4\n      sload\n      div\n      mul\n      dup4\n      mstore\n      swap2\n      0x20\n      add\n      swap2\n      jump(tag_67)\n    tag_68:\n      dup3\n      add\n      swap2\n      swap1\n      0x00\n      mstore\n      keccak256(0x00, 0x20)\n      swap1\n    tag_69:\n      dup2\n      sload\n      dup2\n      mstore\n      swap1\n      0x01\n      add\n      swap1\n      0x20\n      add\n      dup1\n      dup4\n      gt\n      tag_69\n      jumpi\n      dup3\n      swap1\n      sub\n      0x1f\n      and\n      dup3\n      add\n      swap2\n    tag_67:\n      pop\n      pop\n      pop\n      pop\n      pop\n      dup2\n      mstore\n      0x20\n      add\n      0x02\n      dup3\n      add\n      sload\n      dup2\n      mstore\n      pop\n      pop\n      swap1\n      pop\n        /* \"dns.sol\":1909:1919  domainData */\n      dup1\n        /* \"dns.sol\":1909:1924  domainData.ipv4 */\n      0x20\n      add\n      mload\n        /* \"dns.sol\":1901:1925  return (domainData.ipv4) */\n      swap3\n      pop\n      pop\n      pop\n        /* \"dns.sol\":1704:1933  function resolveDomain(string memory domain) public view returns (string memory) {... */\n      swap2\n      swap1\n      pop\n      jump\t// out\n        /* \"dns.sol\":590:1186  function registerDomain(string memory domain, string memory ipv4) public payable {... */\n    tag_37:\n        /* \"dns.sol\":682:700  bytes32 domainHash */\n      0x00\n        /* \"dns.sol\":703:719  namehash(domain) */\n      tag_71\n        /* \"dns.sol\":712:718  domain */\n      dup4\n        /* \"dns.sol\":703:711  namehash */\n      tag_15\n        /* \"dns.sol\":703:719  namehash(domain) */\n      jump\t// in\n    tag_71:\n        /* \"dns.sol\":682:719  bytes32 domainHash = namehash(domain) */\n      swap1\n      pop\n        /* \"dns.sol\":775:776  0 */\n      0x00\n        /* \"dns.sol\":738:777  domains[domainHash].owner == address(0) */\n      0xffffffffffffffffffffffffffffffffffffffff\n      and\n        /* \"dns.sol\":738:745  domains */\n      0x00\n        /* \"dns.sol\":738:757  domains[domainHash] */\n      dup1\n        /* \"dns.sol\":746:756  domainHash */\n      dup4\n        /* \"dns.sol\":738:757  domains[domainHash] */\n      dup2\n      mstore\n      0x20\n      add\n      swap1\n      dup2\n      mstore\n      0x20\n      add\n      0x00\n      keccak256\n        /* \"dns.sol\":738:763  domains[domainHash].owner */\n      0x00\n      add\n      0x00\n      swap1\n      sload\n      swap1\n      0x0100\n      exp\n      swap1\n      div\n      0xffffffffffffffffffffffffffffffffffffffff\n      and\n        /* \"dns.sol\":738:777  domains[domainHash].owner == address(0) */\n      0xffffffffffffffffffffffffffffffffffffffff\n      and\n      eq\n        /* \"dns.sol\":730:807  require(domains[domainHash].owner == address(0), \"Domain already registered\") */\n      tag_72\n      jumpi\n      mload(0x40)\n      0x08c379a000000000000000000000000000000000000000000000000000000000\n      dup2\n      mstore\n      0x04\n      add\n      tag_73\n      swap1\n      tag_74\n      jump\t// in\n    tag_73:\n      mload(0x40)\n      dup1\n      swap2\n      sub\n      swap1\n      revert\n    tag_72:\n        /* \"dns.sol\":839:854  registrationFee */\n      sload(0x01)\n        /* \"dns.sol\":826:835  msg.value */\n      callvalue\n        /* \"dns.sol\":826:854  msg.value >= registrationFee */\n      lt\n      iszero\n        /* \"dns.sol\":818:888  require(msg.value >= registrationFee, \"Insufficient registration fee\") */\n      tag_75\n      jumpi\n      mload(0x40)\n      0x08c379a000000000000000000000000000000000000000000000000000000000\n      dup2\n      mstore\n      0x04\n      add\n      tag_76\n      swap1\n      tag_77\n      jump\t// in\n    tag_76:\n      mload(0x40)\n      dup1\n      swap2\n      sub\n      swap1\n      revert\n    tag_75:\n        /* \"dns.sol\":973:986  contractOwner */\n      0x02\n      0x00\n      swap1\n      sload\n      swap1\n      0x0100\n      exp\n      swap1\n      div\n      0xffffffffffffffffffffffffffffffffffffffff\n      and\n        /* \"dns.sol\":965:996  payable(contractOwner).transfer */\n      0xffffffffffffffffffffffffffffffffffffffff\n      and\n        /* \"dns.sol\":965:1013  payable(contractOwner).transfer(registrationFee) */\n      0x08fc\n        /* \"dns.sol\":997:1012  registrationFee */\n      sload(0x01)\n        /* \"dns.sol\":965:1013  payable(contractOwner).transfer(registrationFee) */\n      swap1\n      dup2\n      iszero\n      mul\n      swap1\n      mload(0x40)\n      0x00\n      mload(0x40)\n      dup1\n      dup4\n      sub\n      dup2\n      dup6\n      dup9\n      dup9\n      call\n      swap4\n      pop\n      pop\n      pop\n      pop\n      iszero\n      dup1\n      iszero\n      tag_79\n      jumpi\n      returndatasize\n      0x00\n      dup1\n      returndatacopy\n      revert(0x00, returndatasize)\n    tag_79:\n      pop\n        /* \"dns.sol\":1049:1178  Domain({... */\n      mload(0x40)\n      dup1\n      0x60\n      add\n      0x40\n      mstore\n      dup1\n        /* \"dns.sol\":1078:1088  msg.sender */\n      caller\n        /* \"dns.sol\":1049:1178  Domain({... */\n      0xffffffffffffffffffffffffffffffffffffffff\n      and\n      dup2\n      mstore\n      0x20\n      add\n        /* \"dns.sol\":1162:1166  ipv4 */\n      dup4\n        /* \"dns.sol\":1049:1178  Domain({... */\n      dup2\n      mstore\n      0x20\n      add\n        /* \"dns.sol\":1133:1141  365 days */\n      0x01e13380\n        /* \"dns.sol\":1115:1130  block.timestamp */\n      timestamp\n        /* \"dns.sol\":1115:1141  block.timestamp + 365 days */\n      tag_80\n      swap2\n      swap1\n      tag_81\n      jump\t// in\n    tag_80:\n        /* \"dns.sol\":1049:1178  Domain({... */\n      dup2\n      mstore\n      pop\n        /* \"dns.sol\":1027:1034  domains */\n      0x00\n        /* \"dns.sol\":1027:1046  domains[domainHash] */\n      dup1\n        /* \"dns.sol\":1035:1045  domainHash */\n      dup4\n        /* \"dns.sol\":1027:1046  domains[domainHash] */\n      dup2\n      mstore\n      0x20\n      add\n      swap1\n      dup2\n      mstore\n      0x20\n      add\n      0x00\n      keccak256\n        /* \"dns.sol\":1027:1178  domains[domainHash] = Domain({... */\n      0x00\n      dup3\n      add\n      mload\n      dup2\n      0x00\n      add\n      exp(0x0100, 0x00)\n      dup2\n      sload\n      dup2\n      0xffffffffffffffffffffffffffffffffffffffff\n      mul\n      not\n      and\n      swap1\n      dup4\n      0xffffffffffffffffffffffffffffffffffffffff\n      and\n      mul\n      or\n      swap1\n      sstore\n      pop\n      0x20\n      dup3\n      add\n      mload\n      dup2\n      0x01\n      add\n      swap1\n      dup2\n      tag_82\n      swap2\n      swap1\n      tag_83\n      jump\t// in\n    tag_82:\n      pop\n      0x40\n      dup3\n      add\n      mload\n      dup2\n      0x02\n      add\n      sstore\n      swap1\n      pop\n      pop\n        /* \"dns.sol\":671:1186  {... */\n      pop\n        /* \"dns.sol\":590:1186  function registerDomain(string memory domain, string memory ipv4) public payable {... */\n      pop\n      pop\n      jump\t// out\n        /* \"dns.sol\":262:303  mapping(bytes32 => Domain) public domains */\n    tag_42:\n      mstore(0x20, 0x00)\n      dup1\n      0x00\n      mstore\n      keccak256(0x00, 0x40)\n      0x00\n      swap2\n      pop\n      swap1\n      pop\n      dup1\n      0x00\n      add\n      0x00\n      swap1\n      sload\n      swap1\n      0x0100\n      exp\n      swap1\n      div\n      0xffffffffffffffffffffffffffffffffffffffff\n      and\n      swap1\n      dup1\n      0x01\n      add\n      dup1\n      sload\n      tag_84\n      swap1\n      tag_65\n      jump\t// in\n    tag_84:\n      dup1\n      0x1f\n      add\n      0x20\n      dup1\n      swap2\n      div\n      mul\n      0x20\n      add\n      mload(0x40)\n      swap1\n      dup2\n      add\n      0x40\n      mstore\n      dup1\n      swap3\n      swap2\n      swap1\n      dup2\n      dup2\n      mstore\n      0x20\n      add\n      dup3\n      dup1\n      sload\n      tag_85\n      swap1\n      tag_65\n      jump\t// in\n    tag_85:\n      dup1\n      iszero\n      tag_86\n      jumpi\n      dup1\n      0x1f\n      lt\n      tag_87\n      jumpi\n      0x0100\n      dup1\n      dup4\n      sload\n      div\n      mul\n      dup4\n      mstore\n      swap2\n      0x20\n      add\n      swap2\n      jump(tag_86)\n    tag_87:\n      dup3\n      add\n      swap2\n      swap1\n      0x00\n      mstore\n      keccak256(0x00, 0x20)\n      swap1\n    tag_88:\n      dup2\n      sload\n      dup2\n      mstore\n      swap1\n      0x01\n      add\n      swap1\n      0x20\n      add\n      dup1\n      dup4\n      gt\n      tag_88\n      jumpi\n      dup3\n      swap1\n      sub\n      0x1f\n      and\n      dup3\n      add\n      swap2\n    tag_86:\n      pop\n      pop\n      pop\n      pop\n      pop\n      swap1\n      dup1\n      0x02\n      add\n      sload\n      swap1\n      pop\n      dup4\n      jump\t// out\n        /* \"dns.sol\":485:513  address public contractOwner */\n    tag_47:\n      0x02\n      0x00\n      swap1\n      sload\n      swap1\n      0x0100\n      exp\n      swap1\n      div\n      0xffffffffffffffffffffffffffffffffffffffff\n      and\n      dup2\n      jump\t// out\n        /* \"dns.sol\":1195:1433  function renewDomain(string memory domain) public {... */\n    tag_53:\n        /* \"dns.sol\":1256:1274  bytes32 domainHash */\n      0x00\n        /* \"dns.sol\":1277:1293  namehash(domain) */\n      tag_90\n        /* \"dns.sol\":1286:1292  domain */\n      dup3\n        /* \"dns.sol\":1277:1285  namehash */\n      tag_15\n        /* \"dns.sol\":1277:1293  namehash(domain) */\n      jump\t// in\n    tag_90:\n        /* \"dns.sol\":1256:1293  bytes32 domainHash = namehash(domain) */\n      swap1\n      pop\n        /* \"dns.sol\":1341:1351  msg.sender */\n      caller\n        /* \"dns.sol\":1312:1351  domains[domainHash].owner == msg.sender */\n      0xffffffffffffffffffffffffffffffffffffffff\n      and\n        /* \"dns.sol\":1312:1319  domains */\n      0x00\n        /* \"dns.sol\":1312:1331  domains[domainHash] */\n      dup1\n        /* \"dns.sol\":1320:1330  domainHash */\n      dup4\n        /* \"dns.sol\":1312:1331  domains[domainHash] */\n      dup2\n      mstore\n      0x20\n      add\n      swap1\n      dup2\n      mstore\n      0x20\n      add\n      0x00\n      keccak256\n        /* \"dns.sol\":1312:1337  domains[domainHash].owner */\n      0x00\n      add\n      0x00\n      swap1\n      sload\n      swap1\n      0x0100\n      exp\n      swap1\n      div\n      0xffffffffffffffffffffffffffffffffffffffff\n      and\n        /* \"dns.sol\":1312:1351  domains[domainHash].owner == msg.sender */\n      0xffffffffffffffffffffffffffffffffffffffff\n      and\n      eq\n        /* \"dns.sol\":1304:1369  require(domains[domainHash].owner == msg.sender, \"Not the owner\") */\n      tag_91\n      jumpi\n      mload(0x40)\n      0x08c379a000000000000000000000000000000000000000000000000000000000\n      dup2\n      mstore\n      0x04\n      add\n      tag_92\n      swap1\n      tag_61\n      jump\t// in\n    tag_92:\n      mload(0x40)\n      dup1\n      swap2\n      sub\n      swap1\n      revert\n    tag_91:\n        /* \"dns.sol\":1417:1425  365 days */\n      0x01e13380\n        /* \"dns.sol\":1383:1390  domains */\n      0x00\n        /* \"dns.sol\":1383:1402  domains[domainHash] */\n      dup1\n        /* \"dns.sol\":1391:1401  domainHash */\n      dup4\n        /* \"dns.sol\":1383:1402  domains[domainHash] */\n      dup2\n      mstore\n      0x20\n      add\n      swap1\n      dup2\n      mstore\n      0x20\n      add\n      0x00\n      keccak256\n        /* \"dns.sol\":1383:1413  domains[domainHash].expiration */\n      0x02\n      add\n      0x00\n        /* \"dns.sol\":1383:1425  domains[domainHash].expiration += 365 days */\n      dup3\n      dup3\n      sload\n      tag_93\n      swap2\n      swap1\n      tag_81\n      jump\t// in\n    tag_93:\n      swap3\n      pop\n      pop\n      dup2\n      swap1\n      sstore\n      pop\n        /* \"dns.sol\":1245:1433  {... */\n      pop\n        /* \"dns.sol\":1195:1433  function renewDomain(string memory domain) public {... */\n      pop\n      jump\t// out\n        /* \"#utility.yul\":7:82   */\n    tag_94:\n        /* \"#utility.yul\":40:46   */\n      0x00\n        /* \"#utility.yul\":73:75   */\n      0x40\n        /* \"#utility.yul\":67:76   */\n      mload\n        /* \"#utility.yul\":57:76   */\n      swap1\n      pop\n        /* \"#utility.yul\":7:82   */\n      swap1\n      jump\t// out\n        /* \"#utility.yul\":88:205   */\n    tag_95:\n        /* \"#utility.yul\":197:198   */\n      0x00\n        /* \"#utility.yul\":194:195   */\n      dup1\n        /* \"#utility.yul\":187:199   */\n      revert\n        /* \"#utility.yul\":211:328   */\n    tag_96:\n        /* \"#utility.yul\":320:321   */\n      0x00\n        /* \"#utility.yul\":317:318   */\n      dup1\n        /* \"#utility.yul\":310:322   */\n      revert\n        /* \"#utility.yul\":334:451   */\n    tag_97:\n        /* \"#utility.yul\":443:444   */\n      0x00\n        /* \"#utility.yul\":440:441   */\n      dup1\n        /* \"#utility.yul\":433:445   */\n      revert\n        /* \"#utility.yul\":457:574   */\n    tag_98:\n        /* \"#utility.yul\":566:567   */\n      0x00\n        /* \"#utility.yul\":563:564   */\n      dup1\n        /* \"#utility.yul\":556:568   */\n      revert\n        /* \"#utility.yul\":580:682   */\n    tag_99:\n        /* \"#utility.yul\":621:627   */\n      0x00\n        /* \"#utility.yul\":672:674   */\n      0x1f\n        /* \"#utility.yul\":668:675   */\n      not\n        /* \"#utility.yul\":663:665   */\n      0x1f\n        /* \"#utility.yul\":656:661   */\n      dup4\n        /* \"#utility.yul\":652:666   */\n      add\n        /* \"#utility.yul\":648:676   */\n      and\n        /* \"#utility.yul\":638:676   */\n      swap1\n      pop\n        /* \"#utility.yul\":580:682   */\n      swap2\n      swap1\n      pop\n      jump\t// out\n        /* \"#utility.yul\":688:868   */\n    tag_100:\n        /* \"#utility.yul\":736:813   */\n      0x4e487b7100000000000000000000000000000000000000000000000000000000\n        /* \"#utility.yul\":733:734   */\n      0x00\n        /* \"#utility.yul\":726:814   */\n      mstore\n        /* \"#utility.yul\":833:837   */\n      0x41\n        /* \"#utility.yul\":830:831   */\n      0x04\n        /* \"#utility.yul\":823:838   */\n      mstore\n        /* \"#utility.yul\":857:861   */\n      0x24\n        /* \"#utility.yul\":854:855   */\n      0x00\n        /* \"#utility.yul\":847:862   */\n      revert\n        /* \"#utility.yul\":874:1155   */\n    tag_101:\n        /* \"#utility.yul\":957:984   */\n      tag_156\n        /* \"#utility.yul\":979:983   */\n      dup3\n        /* \"#utility.yul\":957:984   */\n      tag_99\n      jump\t// in\n    tag_156:\n        /* \"#utility.yul\":949:955   */\n      dup2\n        /* \"#utility.yul\":945:985   */\n      add\n        /* \"#utility.yul\":1087:1093   */\n      dup2\n        /* \"#utility.yul\":1075:1085   */\n      dup2\n        /* \"#utility.yul\":1072:1094   */\n      lt\n        /* \"#utility.yul\":1051:1069   */\n      0xffffffffffffffff\n        /* \"#utility.yul\":1039:1049   */\n      dup3\n        /* \"#utility.yul\":1036:1070   */\n      gt\n        /* \"#utility.yul\":1033:1095   */\n      or\n        /* \"#utility.yul\":1030:1118   */\n      iszero\n      tag_157\n      jumpi\n        /* \"#utility.yul\":1098:1116   */\n      tag_158\n      tag_100\n      jump\t// in\n    tag_158:\n        /* \"#utility.yul\":1030:1118   */\n    tag_157:\n        /* \"#utility.yul\":1138:1148   */\n      dup1\n        /* \"#utility.yul\":1134:1136   */\n      0x40\n        /* \"#utility.yul\":1127:1149   */\n      mstore\n        /* \"#utility.yul\":917:1155   */\n      pop\n        /* \"#utility.yul\":874:1155   */\n      pop\n      pop\n      jump\t// out\n        /* \"#utility.yul\":1161:1290   */\n    tag_102:\n        /* \"#utility.yul\":1195:1201   */\n      0x00\n        /* \"#utility.yul\":1222:1242   */\n      tag_160\n      tag_94\n      jump\t// in\n    tag_160:\n        /* \"#utility.yul\":1212:1242   */\n      swap1\n      pop\n        /* \"#utility.yul\":1251:1284   */\n      tag_161\n        /* \"#utility.yul\":1279:1283   */\n      dup3\n        /* \"#utility.yul\":1271:1277   */\n      dup3\n        /* \"#utility.yul\":1251:1284   */\n      tag_101\n      jump\t// in\n    tag_161:\n        /* \"#utility.yul\":1161:1290   */\n      swap2\n      swap1\n      pop\n      jump\t// out\n        /* \"#utility.yul\":1296:1604   */\n    tag_103:\n        /* \"#utility.yul\":1358:1362   */\n      0x00\n        /* \"#utility.yul\":1448:1466   */\n      0xffffffffffffffff\n        /* \"#utility.yul\":1440:1446   */\n      dup3\n        /* \"#utility.yul\":1437:1467   */\n      gt\n        /* \"#utility.yul\":1434:1490   */\n      iszero\n      tag_163\n      jumpi\n        /* \"#utility.yul\":1470:1488   */\n      tag_164\n      tag_100\n      jump\t// in\n    tag_164:\n        /* \"#utility.yul\":1434:1490   */\n    tag_163:\n        /* \"#utility.yul\":1508:1537   */\n      tag_165\n        /* \"#utility.yul\":1530:1536   */\n      dup3\n        /* \"#utility.yul\":1508:1537   */\n      tag_99\n      jump\t// in\n    tag_165:\n        /* \"#utility.yul\":1500:1537   */\n      swap1\n      pop\n        /* \"#utility.yul\":1592:1596   */\n      0x20\n        /* \"#utility.yul\":1586:1590   */\n      dup2\n        /* \"#utility.yul\":1582:1597   */\n      add\n        /* \"#utility.yul\":1574:1597   */\n      swap1\n      pop\n        /* \"#utility.yul\":1296:1604   */\n      swap2\n      swap1\n      pop\n      jump\t// out\n        /* \"#utility.yul\":1610:1758   */\n    tag_104:\n        /* \"#utility.yul\":1708:1714   */\n      dup3\n        /* \"#utility.yul\":1703:1706   */\n      dup2\n        /* \"#utility.yul\":1698:1701   */\n      dup4\n        /* \"#utility.yul\":1685:1715   */\n      calldatacopy\n        /* \"#utility.yul\":1749:1750   */\n      0x00\n        /* \"#utility.yul\":1740:1746   */\n      dup4\n        /* \"#utility.yul\":1735:1738   */\n      dup4\n        /* \"#utility.yul\":1731:1747   */\n      add\n        /* \"#utility.yul\":1724:1751   */\n      mstore\n        /* \"#utility.yul\":1610:1758   */\n      pop\n      pop\n      pop\n      jump\t// out\n        /* \"#utility.yul\":1764:2189   */\n    tag_105:\n        /* \"#utility.yul\":1842:1847   */\n      0x00\n        /* \"#utility.yul\":1867:1933   */\n      tag_168\n        /* \"#utility.yul\":1883:1932   */\n      tag_169\n        /* \"#utility.yul\":1925:1931   */\n      dup5\n        /* \"#utility.yul\":1883:1932   */\n      tag_103\n      jump\t// in\n    tag_169:\n        /* \"#utility.yul\":1867:1933   */\n      tag_102\n      jump\t// in\n    tag_168:\n        /* \"#utility.yul\":1858:1933   */\n      swap1\n      pop\n        /* \"#utility.yul\":1956:1962   */\n      dup3\n        /* \"#utility.yul\":1949:1954   */\n      dup2\n        /* \"#utility.yul\":1942:1963   */\n      mstore\n        /* \"#utility.yul\":1994:1998   */\n      0x20\n        /* \"#utility.yul\":1987:1992   */\n      dup2\n        /* \"#utility.yul\":1983:1999   */\n      add\n        /* \"#utility.yul\":2032:2035   */\n      dup5\n        /* \"#utility.yul\":2023:2029   */\n      dup5\n        /* \"#utility.yul\":2018:2021   */\n      dup5\n        /* \"#utility.yul\":2014:2030   */\n      add\n        /* \"#utility.yul\":2011:2036   */\n      gt\n        /* \"#utility.yul\":2008:2120   */\n      iszero\n      tag_170\n      jumpi\n        /* \"#utility.yul\":2039:2118   */\n      tag_171\n      tag_98\n      jump\t// in\n    tag_171:\n        /* \"#utility.yul\":2008:2120   */\n    tag_170:\n        /* \"#utility.yul\":2129:2183   */\n      tag_172\n        /* \"#utility.yul\":2176:2182   */\n      dup5\n        /* \"#utility.yul\":2171:2174   */\n      dup3\n        /* \"#utility.yul\":2166:2169   */\n      dup6\n        /* \"#utility.yul\":2129:2183   */\n      tag_104\n      jump\t// in\n    tag_172:\n        /* \"#utility.yul\":1848:2189   */\n      pop\n        /* \"#utility.yul\":1764:2189   */\n      swap4\n      swap3\n      pop\n      pop\n      pop\n      jump\t// out\n        /* \"#utility.yul\":2209:2549   */\n    tag_106:\n        /* \"#utility.yul\":2265:2270   */\n      0x00\n        /* \"#utility.yul\":2314:2317   */\n      dup3\n        /* \"#utility.yul\":2307:2311   */\n      0x1f\n        /* \"#utility.yul\":2299:2305   */\n      dup4\n        /* \"#utility.yul\":2295:2312   */\n      add\n        /* \"#utility.yul\":2291:2318   */\n      slt\n        /* \"#utility.yul\":2281:2403   */\n      tag_174\n      jumpi\n        /* \"#utility.yul\":2322:2401   */\n      tag_175\n      tag_97\n      jump\t// in\n    tag_175:\n        /* \"#utility.yul\":2281:2403   */\n    tag_174:\n        /* \"#utility.yul\":2439:2445   */\n      dup2\n        /* \"#utility.yul\":2426:2446   */\n      calldataload\n        /* \"#utility.yul\":2464:2543   */\n      tag_176\n        /* \"#utility.yul\":2539:2542   */\n      dup5\n        /* \"#utility.yul\":2531:2537   */\n      dup3\n        /* \"#utility.yul\":2524:2528   */\n      0x20\n        /* \"#utility.yul\":2516:2522   */\n      dup7\n        /* \"#utility.yul\":2512:2529   */\n      add\n        /* \"#utility.yul\":2464:2543   */\n      tag_105\n      jump\t// in\n    tag_176:\n        /* \"#utility.yul\":2455:2543   */\n      swap2\n      pop\n        /* \"#utility.yul\":2271:2549   */\n      pop\n        /* \"#utility.yul\":2209:2549   */\n      swap3\n      swap2\n      pop\n      pop\n      jump\t// out\n        /* \"#utility.yul\":2555:3064   */\n    tag_14:\n        /* \"#utility.yul\":2624:2630   */\n      0x00\n        /* \"#utility.yul\":2673:2675   */\n      0x20\n        /* \"#utility.yul\":2661:2670   */\n      dup3\n        /* \"#utility.yul\":2652:2659   */\n      dup5\n        /* \"#utility.yul\":2648:2671   */\n      sub\n        /* \"#utility.yul\":2644:2676   */\n      slt\n        /* \"#utility.yul\":2641:2760   */\n      iszero\n      tag_178\n      jumpi\n        /* \"#utility.yul\":2679:2758   */\n      tag_179\n      tag_95\n      jump\t// in\n    tag_179:\n        /* \"#utility.yul\":2641:2760   */\n    tag_178:\n        /* \"#utility.yul\":2827:2828   */\n      0x00\n        /* \"#utility.yul\":2816:2825   */\n      dup3\n        /* \"#utility.yul\":2812:2829   */\n      add\n        /* \"#utility.yul\":2799:2830   */\n      calldataload\n        /* \"#utility.yul\":2857:2875   */\n      0xffffffffffffffff\n        /* \"#utility.yul\":2849:2855   */\n      dup2\n        /* \"#utility.yul\":2846:2876   */\n      gt\n        /* \"#utility.yul\":2843:2960   */\n      iszero\n      tag_180\n      jumpi\n        /* \"#utility.yul\":2879:2958   */\n      tag_181\n      tag_96\n      jump\t// in\n    tag_181:\n        /* \"#utility.yul\":2843:2960   */\n    tag_180:\n        /* \"#utility.yul\":2984:3047   */\n      tag_182\n        /* \"#utility.yul\":3039:3046   */\n      dup5\n        /* \"#utility.yul\":3030:3036   */\n      dup3\n        /* \"#utility.yul\":3019:3028   */\n      dup6\n        /* \"#utility.yul\":3015:3037   */\n      add\n        /* \"#utility.yul\":2984:3047   */\n      tag_106\n      jump\t// in\n    tag_182:\n        /* \"#utility.yul\":2974:3047   */\n      swap2\n      pop\n        /* \"#utility.yul\":2770:3057   */\n      pop\n        /* \"#utility.yul\":2555:3064   */\n      swap3\n      swap2\n      pop\n      pop\n      jump\t// out\n        /* \"#utility.yul\":3070:3147   */\n    tag_107:\n        /* \"#utility.yul\":3107:3114   */\n      0x00\n        /* \"#utility.yul\":3136:3141   */\n      dup2\n        /* \"#utility.yul\":3125:3141   */\n      swap1\n      pop\n        /* \"#utility.yul\":3070:3147   */\n      swap2\n      swap1\n      pop\n      jump\t// out\n        /* \"#utility.yul\":3153:3271   */\n    tag_108:\n        /* \"#utility.yul\":3240:3264   */\n      tag_185\n        /* \"#utility.yul\":3258:3263   */\n      dup2\n        /* \"#utility.yul\":3240:3264   */\n      tag_107\n      jump\t// in\n    tag_185:\n        /* \"#utility.yul\":3235:3238   */\n      dup3\n        /* \"#utility.yul\":3228:3265   */\n      mstore\n        /* \"#utility.yul\":3153:3271   */\n      pop\n      pop\n      jump\t// out\n        /* \"#utility.yul\":3277:3499   */\n    tag_17:\n        /* \"#utility.yul\":3370:3374   */\n      0x00\n        /* \"#utility.yul\":3408:3410   */\n      0x20\n        /* \"#utility.yul\":3397:3406   */\n      dup3\n        /* \"#utility.yul\":3393:3411   */\n      add\n        /* \"#utility.yul\":3385:3411   */\n      swap1\n      pop\n        /* \"#utility.yul\":3421:3492   */\n      tag_187\n        /* \"#utility.yul\":3489:3490   */\n      0x00\n        /* \"#utility.yul\":3478:3487   */\n      dup4\n        /* \"#utility.yul\":3474:3491   */\n      add\n        /* \"#utility.yul\":3465:3471   */\n      dup5\n        /* \"#utility.yul\":3421:3492   */\n      tag_108\n      jump\t// in\n    tag_187:\n        /* \"#utility.yul\":3277:3499   */\n      swap3\n      swap2\n      pop\n      pop\n      jump\t// out\n        /* \"#utility.yul\":3505:3582   */\n    tag_109:\n        /* \"#utility.yul\":3542:3549   */\n      0x00\n        /* \"#utility.yul\":3571:3576   */\n      dup2\n        /* \"#utility.yul\":3560:3576   */\n      swap1\n      pop\n        /* \"#utility.yul\":3505:3582   */\n      swap2\n      swap1\n      pop\n      jump\t// out\n        /* \"#utility.yul\":3588:3706   */\n    tag_110:\n        /* \"#utility.yul\":3675:3699   */\n      tag_190\n        /* \"#utility.yul\":3693:3698   */\n      dup2\n        /* \"#utility.yul\":3675:3699   */\n      tag_109\n      jump\t// in\n    tag_190:\n        /* \"#utility.yul\":3670:3673   */\n      dup3\n        /* \"#utility.yul\":3663:3700   */\n      mstore\n        /* \"#utility.yul\":3588:3706   */\n      pop\n      pop\n      jump\t// out\n        /* \"#utility.yul\":3712:3934   */\n    tag_22:\n        /* \"#utility.yul\":3805:3809   */\n      0x00\n        /* \"#utility.yul\":3843:3845   */\n      0x20\n        /* \"#utility.yul\":3832:3841   */\n      dup3\n        /* \"#utility.yul\":3828:3846   */\n      add\n        /* \"#utility.yul\":3820:3846   */\n      swap1\n      pop\n        /* \"#utility.yul\":3856:3927   */\n      tag_192\n        /* \"#utility.yul\":3924:3925   */\n      0x00\n        /* \"#utility.yul\":3913:3922   */\n      dup4\n        /* \"#utility.yul\":3909:3926   */\n      add\n        /* \"#utility.yul\":3900:3906   */\n      dup5\n        /* \"#utility.yul\":3856:3927   */\n      tag_110\n      jump\t// in\n    tag_192:\n        /* \"#utility.yul\":3712:3934   */\n      swap3\n      swap2\n      pop\n      pop\n      jump\t// out\n        /* \"#utility.yul\":3940:4066   */\n    tag_111:\n        /* \"#utility.yul\":3977:3984   */\n      0x00\n        /* \"#utility.yul\":4017:4059   */\n      0xffffffffffffffffffffffffffffffffffffffff\n        /* \"#utility.yul\":4010:4015   */\n      dup3\n        /* \"#utility.yul\":4006:4060   */\n      and\n        /* \"#utility.yul\":3995:4060   */\n      swap1\n      pop\n        /* \"#utility.yul\":3940:4066   */\n      swap2\n      swap1\n      pop\n      jump\t// out\n        /* \"#utility.yul\":4072:4168   */\n    tag_112:\n        /* \"#utility.yul\":4109:4116   */\n      0x00\n        /* \"#utility.yul\":4138:4162   */\n      tag_195\n        /* \"#utility.yul\":4156:4161   */\n      dup3\n        /* \"#utility.yul\":4138:4162   */\n      tag_111\n      jump\t// in\n    tag_195:\n        /* \"#utility.yul\":4127:4162   */\n      swap1\n      pop\n        /* \"#utility.yul\":4072:4168   */\n      swap2\n      swap1\n      pop\n      jump\t// out\n        /* \"#utility.yul\":4174:4296   */\n    tag_113:\n        /* \"#utility.yul\":4247:4271   */\n      tag_197\n        /* \"#utility.yul\":4265:4270   */\n      dup2\n        /* \"#utility.yul\":4247:4271   */\n      tag_112\n      jump\t// in\n    tag_197:\n        /* \"#utility.yul\":4240:4245   */\n      dup2\n        /* \"#utility.yul\":4237:4272   */\n      eq\n        /* \"#utility.yul\":4227:4290   */\n      tag_198\n      jumpi\n        /* \"#utility.yul\":4286:4287   */\n      0x00\n        /* \"#utility.yul\":4283:4284   */\n      dup1\n        /* \"#utility.yul\":4276:4288   */\n      revert\n        /* \"#utility.yul\":4227:4290   */\n    tag_198:\n        /* \"#utility.yul\":4174:4296   */\n      pop\n      jump\t// out\n        /* \"#utility.yul\":4302:4441   */\n    tag_114:\n        /* \"#utility.yul\":4348:4353   */\n      0x00\n        /* \"#utility.yul\":4386:4392   */\n      dup2\n        /* \"#utility.yul\":4373:4393   */\n      calldataload\n        /* \"#utility.yul\":4364:4393   */\n      swap1\n      pop\n        /* \"#utility.yul\":4402:4435   */\n      tag_200\n        /* \"#utility.yul\":4429:4434   */\n      dup2\n        /* \"#utility.yul\":4402:4435   */\n      tag_113\n      jump\t// in\n    tag_200:\n        /* \"#utility.yul\":4302:4441   */\n      swap3\n      swap2\n      pop\n      pop\n      jump\t// out\n        /* \"#utility.yul\":4447:5101   */\n    tag_26:\n        /* \"#utility.yul\":4525:4531   */\n      0x00\n        /* \"#utility.yul\":4533:4539   */\n      dup1\n        /* \"#utility.yul\":4582:4584   */\n      0x40\n        /* \"#utility.yul\":4570:4579   */\n      dup4\n        /* \"#utility.yul\":4561:4568   */\n      dup6\n        /* \"#utility.yul\":4557:4580   */\n      sub\n        /* \"#utility.yul\":4553:4585   */\n      slt\n        /* \"#utility.yul\":4550:4669   */\n      iszero\n      tag_202\n      jumpi\n        /* \"#utility.yul\":4588:4667   */\n      tag_203\n      tag_95\n      jump\t// in\n    tag_203:\n        /* \"#utility.yul\":4550:4669   */\n    tag_202:\n        /* \"#utility.yul\":4736:4737   */\n      0x00\n        /* \"#utility.yul\":4725:4734   */\n      dup4\n        /* \"#utility.yul\":4721:4738   */\n      add\n        /* \"#utility.yul\":4708:4739   */\n      calldataload\n        /* \"#utility.yul\":4766:4784   */\n      0xffffffffffffffff\n        /* \"#utility.yul\":4758:4764   */\n      dup2\n        /* \"#utility.yul\":4755:4785   */\n      gt\n        /* \"#utility.yul\":4752:4869   */\n      iszero\n      tag_204\n      jumpi\n        /* \"#utility.yul\":4788:4867   */\n      tag_205\n      tag_96\n      jump\t// in\n    tag_205:\n        /* \"#utility.yul\":4752:4869   */\n    tag_204:\n        /* \"#utility.yul\":4893:4956   */\n      tag_206\n        /* \"#utility.yul\":4948:4955   */\n      dup6\n        /* \"#utility.yul\":4939:4945   */\n      dup3\n        /* \"#utility.yul\":4928:4937   */\n      dup7\n        /* \"#utility.yul\":4924:4946   */\n      add\n        /* \"#utility.yul\":4893:4956   */\n      tag_106\n      jump\t// in\n    tag_206:\n        /* \"#utility.yul\":4883:4956   */\n      swap3\n      pop\n        /* \"#utility.yul\":4679:4966   */\n      pop\n        /* \"#utility.yul\":5005:5007   */\n      0x20\n        /* \"#utility.yul\":5031:5084   */\n      tag_207\n        /* \"#utility.yul\":5076:5083   */\n      dup6\n        /* \"#utility.yul\":5067:5073   */\n      dup3\n        /* \"#utility.yul\":5056:5065   */\n      dup7\n        /* \"#utility.yul\":5052:5074   */\n      add\n        /* \"#utility.yul\":5031:5084   */\n      tag_114\n      jump\t// in\n    tag_207:\n        /* \"#utility.yul\":5021:5084   */\n      swap2\n      pop\n        /* \"#utility.yul\":4976:5094   */\n      pop\n        /* \"#utility.yul\":4447:5101   */\n      swap3\n      pop\n      swap3\n      swap1\n      pop\n      jump\t// out\n        /* \"#utility.yul\":5107:5206   */\n    tag_115:\n        /* \"#utility.yul\":5159:5165   */\n      0x00\n        /* \"#utility.yul\":5193:5198   */\n      dup2\n        /* \"#utility.yul\":5187:5199   */\n      mload\n        /* \"#utility.yul\":5177:5199   */\n      swap1\n      pop\n        /* \"#utility.yul\":5107:5206   */\n      swap2\n      swap1\n      pop\n      jump\t// out\n        /* \"#utility.yul\":5212:5381   */\n    tag_116:\n        /* \"#utility.yul\":5296:5307   */\n      0x00\n        /* \"#utility.yul\":5330:5336   */\n      dup3\n        /* \"#utility.yul\":5325:5328   */\n      dup3\n        /* \"#utility.yul\":5318:5337   */\n      mstore\n        /* \"#utility.yul\":5370:5374   */\n      0x20\n        /* \"#utility.yul\":5365:5368   */\n      dup3\n        /* \"#utility.yul\":5361:5375   */\n      add\n        /* \"#utility.yul\":5346:5375   */\n      swap1\n      pop\n        /* \"#utility.yul\":5212:5381   */\n      swap3\n      swap2\n      pop\n      pop\n      jump\t// out\n        /* \"#utility.yul\":5387:5526   */\n    tag_117:\n        /* \"#utility.yul\":5476:5482   */\n      dup3\n        /* \"#utility.yul\":5471:5474   */\n      dup2\n        /* \"#utility.yul\":5466:5469   */\n      dup4\n        /* \"#utility.yul\":5460:5483   */\n      mcopy\n        /* \"#utility.yul\":5517:5518   */\n      0x00\n        /* \"#utility.yul\":5508:5514   */\n      dup4\n        /* \"#utility.yul\":5503:5506   */\n      dup4\n        /* \"#utility.yul\":5499:5515   */\n      add\n        /* \"#utility.yul\":5492:5519   */\n      mstore\n        /* \"#utility.yul\":5387:5526   */\n      pop\n      pop\n      pop\n      jump\t// out\n        /* \"#utility.yul\":5532:5909   */\n    tag_118:\n        /* \"#utility.yul\":5620:5623   */\n      0x00\n        /* \"#utility.yul\":5648:5687   */\n      tag_212\n        /* \"#utility.yul\":5681:5686   */\n      dup3\n        /* \"#utility.yul\":5648:5687   */\n      tag_115\n      jump\t// in\n    tag_212:\n        /* \"#utility.yul\":5703:5774   */\n      tag_213\n        /* \"#utility.yul\":5767:5773   */\n      dup2\n        /* \"#utility.yul\":5762:5765   */\n      dup6\n        /* \"#utility.yul\":5703:5774   */\n      tag_116\n      jump\t// in\n    tag_213:\n        /* \"#utility.yul\":5696:5774   */\n      swap4\n      pop\n        /* \"#utility.yul\":5783:5848   */\n      tag_214\n        /* \"#utility.yul\":5841:5847   */\n      dup2\n        /* \"#utility.yul\":5836:5839   */\n      dup6\n        /* \"#utility.yul\":5829:5833   */\n      0x20\n        /* \"#utility.yul\":5822:5827   */\n      dup7\n        /* \"#utility.yul\":5818:5834   */\n      add\n        /* \"#utility.yul\":5783:5848   */\n      tag_117\n      jump\t// in\n    tag_214:\n        /* \"#utility.yul\":5873:5902   */\n      tag_215\n        /* \"#utility.yul\":5895:5901   */\n      dup2\n        /* \"#utility.yul\":5873:5902   */\n      tag_99\n      jump\t// in\n    tag_215:\n        /* \"#utility.yul\":5868:5871   */\n      dup5\n        /* \"#utility.yul\":5864:5903   */\n      add\n        /* \"#utility.yul\":5857:5903   */\n      swap2\n      pop\n        /* \"#utility.yul\":5624:5909   */\n      pop\n        /* \"#utility.yul\":5532:5909   */\n      swap3\n      swap2\n      pop\n      pop\n      jump\t// out\n        /* \"#utility.yul\":5915:6228   */\n    tag_33:\n        /* \"#utility.yul\":6028:6032   */\n      0x00\n        /* \"#utility.yul\":6066:6068   */\n      0x20\n        /* \"#utility.yul\":6055:6064   */\n      dup3\n        /* \"#utility.yul\":6051:6069   */\n      add\n        /* \"#utility.yul\":6043:6069   */\n      swap1\n      pop\n        /* \"#utility.yul\":6115:6124   */\n      dup2\n        /* \"#utility.yul\":6109:6113   */\n      dup2\n        /* \"#utility.yul\":6105:6125   */\n      sub\n        /* \"#utility.yul\":6101:6102   */\n      0x00\n        /* \"#utility.yul\":6090:6099   */\n      dup4\n        /* \"#utility.yul\":6086:6103   */\n      add\n        /* \"#utility.yul\":6079:6126   */\n      mstore\n        /* \"#utility.yul\":6143:6221   */\n      tag_217\n        /* \"#utility.yul\":6216:6220   */\n      dup2\n        /* \"#utility.yul\":6207:6213   */\n      dup5\n        /* \"#utility.yul\":6143:6221   */\n      tag_118\n      jump\t// in\n    tag_217:\n        /* \"#utility.yul\":6135:6221   */\n      swap1\n      pop\n        /* \"#utility.yul\":5915:6228   */\n      swap3\n      swap2\n      pop\n      pop\n      jump\t// out\n        /* \"#utility.yul\":6234:7068   */\n    tag_36:\n        /* \"#utility.yul\":6322:6328   */\n      0x00\n        /* \"#utility.yul\":6330:6336   */\n      dup1\n        /* \"#utility.yul\":6379:6381   */\n      0x40\n        /* \"#utility.yul\":6367:6376   */\n      dup4\n        /* \"#utility.yul\":6358:6365   */\n      dup6\n        /* \"#utility.yul\":6354:6377   */\n      sub\n        /* \"#utility.yul\":6350:6382   */\n      slt\n        /* \"#utility.yul\":6347:6466   */\n      iszero\n      tag_219\n      jumpi\n        /* \"#utility.yul\":6385:6464   */\n      tag_220\n      tag_95\n      jump\t// in\n    tag_220:\n        /* \"#utility.yul\":6347:6466   */\n    tag_219:\n        /* \"#utility.yul\":6533:6534   */\n      0x00\n        /* \"#utility.yul\":6522:6531   */\n      dup4\n        /* \"#utility.yul\":6518:6535   */\n      add\n        /* \"#utility.yul\":6505:6536   */\n      calldataload\n        /* \"#utility.yul\":6563:6581   */\n      0xffffffffffffffff\n        /* \"#utility.yul\":6555:6561   */\n      dup2\n        /* \"#utility.yul\":6552:6582   */\n      gt\n        /* \"#utility.yul\":6549:6666   */\n      iszero\n      tag_221\n      jumpi\n        /* \"#utility.yul\":6585:6664   */\n      tag_222\n      tag_96\n      jump\t// in\n    tag_222:\n        /* \"#utility.yul\":6549:6666   */\n    tag_221:\n        /* \"#utility.yul\":6690:6753   */\n      tag_223\n        /* \"#utility.yul\":6745:6752   */\n      dup6\n        /* \"#utility.yul\":6736:6742   */\n      dup3\n        /* \"#utility.yul\":6725:6734   */\n      dup7\n        /* \"#utility.yul\":6721:6743   */\n      add\n        /* \"#utility.yul\":6690:6753   */\n      tag_106\n      jump\t// in\n    tag_223:\n        /* \"#utility.yul\":6680:6753   */\n      swap3\n      pop\n        /* \"#utility.yul\":6476:6763   */\n      pop\n        /* \"#utility.yul\":6830:6832   */\n      0x20\n        /* \"#utility.yul\":6819:6828   */\n      dup4\n        /* \"#utility.yul\":6815:6833   */\n      add\n        /* \"#utility.yul\":6802:6834   */\n      calldataload\n        /* \"#utility.yul\":6861:6879   */\n      0xffffffffffffffff\n        /* \"#utility.yul\":6853:6859   */\n      dup2\n        /* \"#utility.yul\":6850:6880   */\n      gt\n        /* \"#utility.yul\":6847:6964   */\n      iszero\n      tag_224\n      jumpi\n        /* \"#utility.yul\":6883:6962   */\n      tag_225\n      tag_96\n      jump\t// in\n    tag_225:\n        /* \"#utility.yul\":6847:6964   */\n    tag_224:\n        /* \"#utility.yul\":6988:7051   */\n      tag_226\n        /* \"#utility.yul\":7043:7050   */\n      dup6\n        /* \"#utility.yul\":7034:7040   */\n      dup3\n        /* \"#utility.yul\":7023:7032   */\n      dup7\n        /* \"#utility.yul\":7019:7041   */\n      add\n        /* \"#utility.yul\":6988:7051   */\n      tag_106\n      jump\t// in\n    tag_226:\n        /* \"#utility.yul\":6978:7051   */\n      swap2\n      pop\n        /* \"#utility.yul\":6773:7061   */\n      pop\n        /* \"#utility.yul\":6234:7068   */\n      swap3\n      pop\n      swap3\n      swap1\n      pop\n      jump\t// out\n        /* \"#utility.yul\":7074:7196   */\n    tag_119:\n        /* \"#utility.yul\":7147:7171   */\n      tag_228\n        /* \"#utility.yul\":7165:7170   */\n      dup2\n        /* \"#utility.yul\":7147:7171   */\n      tag_107\n      jump\t// in\n    tag_228:\n        /* \"#utility.yul\":7140:7145   */\n      dup2\n        /* \"#utility.yul\":7137:7172   */\n      eq\n        /* \"#utility.yul\":7127:7190   */\n      tag_229\n      jumpi\n        /* \"#utility.yul\":7186:7187   */\n      0x00\n        /* \"#utility.yul\":7183:7184   */\n      dup1\n        /* \"#utility.yul\":7176:7188   */\n      revert\n        /* \"#utility.yul\":7127:7190   */\n    tag_229:\n        /* \"#utility.yul\":7074:7196   */\n      pop\n      jump\t// out\n        /* \"#utility.yul\":7202:7341   */\n    tag_120:\n        /* \"#utility.yul\":7248:7253   */\n      0x00\n        /* \"#utility.yul\":7286:7292   */\n      dup2\n        /* \"#utility.yul\":7273:7293   */\n      calldataload\n        /* \"#utility.yul\":7264:7293   */\n      swap1\n      pop\n        /* \"#utility.yul\":7302:7335   */\n      tag_231\n        /* \"#utility.yul\":7329:7334   */\n      dup2\n        /* \"#utility.yul\":7302:7335   */\n      tag_119\n      jump\t// in\n    tag_231:\n        /* \"#utility.yul\":7202:7341   */\n      swap3\n      swap2\n      pop\n      pop\n      jump\t// out\n        /* \"#utility.yul\":7347:7676   */\n    tag_41:\n        /* \"#utility.yul\":7406:7412   */\n      0x00\n        /* \"#utility.yul\":7455:7457   */\n      0x20\n        /* \"#utility.yul\":7443:7452   */\n      dup3\n        /* \"#utility.yul\":7434:7441   */\n      dup5\n        /* \"#utility.yul\":7430:7453   */\n      sub\n        /* \"#utility.yul\":7426:7458   */\n      slt\n        /* \"#utility.yul\":7423:7542   */\n      iszero\n      tag_233\n      jumpi\n        /* \"#utility.yul\":7461:7540   */\n      tag_234\n      tag_95\n      jump\t// in\n    tag_234:\n        /* \"#utility.yul\":7423:7542   */\n    tag_233:\n        /* \"#utility.yul\":7581:7582   */\n      0x00\n        /* \"#utility.yul\":7606:7659   */\n      tag_235\n        /* \"#utility.yul\":7651:7658   */\n      dup5\n        /* \"#utility.yul\":7642:7648   */\n      dup3\n        /* \"#utility.yul\":7631:7640   */\n      dup6\n        /* \"#utility.yul\":7627:7649   */\n      add\n        /* \"#utility.yul\":7606:7659   */\n      tag_120\n      jump\t// in\n    tag_235:\n        /* \"#utility.yul\":7596:7659   */\n      swap2\n      pop\n        /* \"#utility.yul\":7552:7669   */\n      pop\n        /* \"#utility.yul\":7347:7676   */\n      swap3\n      swap2\n      pop\n      pop\n      jump\t// out\n        /* \"#utility.yul\":7682:7800   */\n    tag_121:\n        /* \"#utility.yul\":7769:7793   */\n      tag_237\n        /* \"#utility.yul\":7787:7792   */\n      dup2\n        /* \"#utility.yul\":7769:7793   */\n      tag_112\n      jump\t// in\n    tag_237:\n        /* \"#utility.yul\":7764:7767   */\n      dup3\n        /* \"#utility.yul\":7757:7794   */\n      mstore\n        /* \"#utility.yul\":7682:7800   */\n      pop\n      pop\n      jump\t// out\n        /* \"#utility.yul\":7806:8339   */\n    tag_44:\n        /* \"#utility.yul\":7975:7979   */\n      0x00\n        /* \"#utility.yul\":8013:8015   */\n      0x60\n        /* \"#utility.yul\":8002:8011   */\n      dup3\n        /* \"#utility.yul\":7998:8016   */\n      add\n        /* \"#utility.yul\":7990:8016   */\n      swap1\n      pop\n        /* \"#utility.yul\":8026:8097   */\n      tag_239\n        /* \"#utility.yul\":8094:8095   */\n      0x00\n        /* \"#utility.yul\":8083:8092   */\n      dup4\n        /* \"#utility.yul\":8079:8096   */\n      add\n        /* \"#utility.yul\":8070:8076   */\n      dup7\n        /* \"#utility.yul\":8026:8097   */\n      tag_121\n      jump\t// in\n    tag_239:\n        /* \"#utility.yul\":8144:8153   */\n      dup2\n        /* \"#utility.yul\":8138:8142   */\n      dup2\n        /* \"#utility.yul\":8134:8154   */\n      sub\n        /* \"#utility.yul\":8129:8131   */\n      0x20\n        /* \"#utility.yul\":8118:8127   */\n      dup4\n        /* \"#utility.yul\":8114:8132   */\n      add\n        /* \"#utility.yul\":8107:8155   */\n      mstore\n        /* \"#utility.yul\":8172:8250   */\n      tag_240\n        /* \"#utility.yul\":8245:8249   */\n      dup2\n        /* \"#utility.yul\":8236:8242   */\n      dup6\n        /* \"#utility.yul\":8172:8250   */\n      tag_118\n      jump\t// in\n    tag_240:\n        /* \"#utility.yul\":8164:8250   */\n      swap1\n      pop\n        /* \"#utility.yul\":8260:8332   */\n      tag_241\n        /* \"#utility.yul\":8328:8330   */\n      0x40\n        /* \"#utility.yul\":8317:8326   */\n      dup4\n        /* \"#utility.yul\":8313:8331   */\n      add\n        /* \"#utility.yul\":8304:8310   */\n      dup5\n        /* \"#utility.yul\":8260:8332   */\n      tag_110\n      jump\t// in\n    tag_241:\n        /* \"#utility.yul\":7806:8339   */\n      swap5\n      swap4\n      pop\n      pop\n      pop\n      pop\n      jump\t// out\n        /* \"#utility.yul\":8345:8567   */\n    tag_49:\n        /* \"#utility.yul\":8438:8442   */\n      0x00\n        /* \"#utility.yul\":8476:8478   */\n      0x20\n        /* \"#utility.yul\":8465:8474   */\n      dup3\n        /* \"#utility.yul\":8461:8479   */\n      add\n        /* \"#utility.yul\":8453:8479   */\n      swap1\n      pop\n        /* \"#utility.yul\":8489:8560   */\n      tag_243\n        /* \"#utility.yul\":8557:8558   */\n      0x00\n        /* \"#utility.yul\":8546:8555   */\n      dup4\n        /* \"#utility.yul\":8542:8559   */\n      add\n        /* \"#utility.yul\":8533:8539   */\n      dup5\n        /* \"#utility.yul\":8489:8560   */\n      tag_121\n      jump\t// in\n    tag_243:\n        /* \"#utility.yul\":8345:8567   */\n      swap3\n      swap2\n      pop\n      pop\n      jump\t// out\n        /* \"#utility.yul\":8573:8721   */\n    tag_122:\n        /* \"#utility.yul\":8675:8686   */\n      0x00\n        /* \"#utility.yul\":8712:8715   */\n      dup2\n        /* \"#utility.yul\":8697:8715   */\n      swap1\n      pop\n        /* \"#utility.yul\":8573:8721   */\n      swap3\n      swap2\n      pop\n      pop\n      jump\t// out\n        /* \"#utility.yul\":8727:9117   */\n    tag_123:\n        /* \"#utility.yul\":8833:8836   */\n      0x00\n        /* \"#utility.yul\":8861:8900   */\n      tag_246\n        /* \"#utility.yul\":8894:8899   */\n      dup3\n        /* \"#utility.yul\":8861:8900   */\n      tag_115\n      jump\t// in\n    tag_246:\n        /* \"#utility.yul\":8916:9005   */\n      tag_247\n        /* \"#utility.yul\":8998:9004   */\n      dup2\n        /* \"#utility.yul\":8993:8996   */\n      dup6\n        /* \"#utility.yul\":8916:9005   */\n      tag_122\n      jump\t// in\n    tag_247:\n        /* \"#utility.yul\":8909:9005   */\n      swap4\n      pop\n        /* \"#utility.yul\":9014:9079   */\n      tag_248\n        /* \"#utility.yul\":9072:9078   */\n      dup2\n        /* \"#utility.yul\":9067:9070   */\n      dup6\n        /* \"#utility.yul\":9060:9064   */\n      0x20\n        /* \"#utility.yul\":9053:9058   */\n      dup7\n        /* \"#utility.yul\":9049:9065   */\n      add\n        /* \"#utility.yul\":9014:9079   */\n      tag_117\n      jump\t// in\n    tag_248:\n        /* \"#utility.yul\":9104:9110   */\n      dup1\n        /* \"#utility.yul\":9099:9102   */\n      dup5\n        /* \"#utility.yul\":9095:9111   */\n      add\n        /* \"#utility.yul\":9088:9111   */\n      swap2\n      pop\n        /* \"#utility.yul\":8837:9117   */\n      pop\n        /* \"#utility.yul\":8727:9117   */\n      swap3\n      swap2\n      pop\n      pop\n      jump\t// out\n        /* \"#utility.yul\":9123:9398   */\n    tag_56:\n        /* \"#utility.yul\":9255:9258   */\n      0x00\n        /* \"#utility.yul\":9277:9372   */\n      tag_250\n        /* \"#utility.yul\":9368:9371   */\n      dup3\n        /* \"#utility.yul\":9359:9365   */\n      dup5\n        /* \"#utility.yul\":9277:9372   */\n      tag_123\n      jump\t// in\n    tag_250:\n        /* \"#utility.yul\":9270:9372   */\n      swap2\n      pop\n        /* \"#utility.yul\":9389:9392   */\n      dup2\n        /* \"#utility.yul\":9382:9392   */\n      swap1\n      pop\n        /* \"#utility.yul\":9123:9398   */\n      swap3\n      swap2\n      pop\n      pop\n      jump\t// out\n        /* \"#utility.yul\":9404:9567   */\n    tag_124:\n        /* \"#utility.yul\":9544:9559   */\n      0x4e6f7420746865206f776e657200000000000000000000000000000000000000\n        /* \"#utility.yul\":9540:9541   */\n      0x00\n        /* \"#utility.yul\":9532:9538   */\n      dup3\n        /* \"#utility.yul\":9528:9542   */\n      add\n        /* \"#utility.yul\":9521:9560   */\n      mstore\n        /* \"#utility.yul\":9404:9567   */\n      pop\n      jump\t// out\n        /* \"#utility.yul\":9573:9939   */\n    tag_125:\n        /* \"#utility.yul\":9715:9718   */\n      0x00\n        /* \"#utility.yul\":9736:9803   */\n      tag_253\n        /* \"#utility.yul\":9800:9802   */\n      0x0d\n        /* \"#utility.yul\":9795:9798   */\n      dup4\n        /* \"#utility.yul\":9736:9803   */\n      tag_116\n      jump\t// in\n    tag_253:\n        /* \"#utility.yul\":9729:9803   */\n      swap2\n      pop\n        /* \"#utility.yul\":9812:9905   */\n      tag_254\n        /* \"#utility.yul\":9901:9904   */\n      dup3\n        /* \"#utility.yul\":9812:9905   */\n      tag_124\n      jump\t// in\n    tag_254:\n        /* \"#utility.yul\":9930:9932   */\n      0x20\n        /* \"#utility.yul\":9925:9928   */\n      dup3\n        /* \"#utility.yul\":9921:9933   */\n      add\n        /* \"#utility.yul\":9914:9933   */\n      swap1\n      pop\n        /* \"#utility.yul\":9573:9939   */\n      swap2\n      swap1\n      pop\n      jump\t// out\n        /* \"#utility.yul\":9945:10364   */\n    tag_61:\n        /* \"#utility.yul\":10111:10115   */\n      0x00\n        /* \"#utility.yul\":10149:10151   */\n      0x20\n        /* \"#utility.yul\":10138:10147   */\n      dup3\n        /* \"#utility.yul\":10134:10152   */\n      add\n        /* \"#utility.yul\":10126:10152   */\n      swap1\n      pop\n        /* \"#utility.yul\":10198:10207   */\n      dup2\n        /* \"#utility.yul\":10192:10196   */\n      dup2\n        /* \"#utility.yul\":10188:10208   */\n      sub\n        /* \"#utility.yul\":10184:10185   */\n      0x00\n        /* \"#utility.yul\":10173:10182   */\n      dup4\n        /* \"#utility.yul\":10169:10186   */\n      add\n        /* \"#utility.yul\":10162:10209   */\n      mstore\n        /* \"#utility.yul\":10226:10357   */\n      tag_256\n        /* \"#utility.yul\":10352:10356   */\n      dup2\n        /* \"#utility.yul\":10226:10357   */\n      tag_125\n      jump\t// in\n    tag_256:\n        /* \"#utility.yul\":10218:10357   */\n      swap1\n      pop\n        /* \"#utility.yul\":9945:10364   */\n      swap2\n      swap1\n      pop\n      jump\t// out\n        /* \"#utility.yul\":10370:10550   */\n    tag_126:\n        /* \"#utility.yul\":10418:10495   */\n      0x4e487b7100000000000000000000000000000000000000000000000000000000\n        /* \"#utility.yul\":10415:10416   */\n      0x00\n        /* \"#utility.yul\":10408:10496   */\n      mstore\n        /* \"#utility.yul\":10515:10519   */\n      0x22\n        /* \"#utility.yul\":10512:10513   */\n      0x04\n        /* \"#utility.yul\":10505:10520   */\n      mstore\n        /* \"#utility.yul\":10539:10543   */\n      0x24\n        /* \"#utility.yul\":10536:10537   */\n      0x00\n        /* \"#utility.yul\":10529:10544   */\n      revert\n        /* \"#utility.yul\":10556:10876   */\n    tag_65:\n        /* \"#utility.yul\":10600:10606   */\n      0x00\n        /* \"#utility.yul\":10637:10638   */\n      0x02\n        /* \"#utility.yul\":10631:10635   */\n      dup3\n        /* \"#utility.yul\":10627:10639   */\n      div\n        /* \"#utility.yul\":10617:10639   */\n      swap1\n      pop\n        /* \"#utility.yul\":10684:10685   */\n      0x01\n        /* \"#utility.yul\":10678:10682   */\n      dup3\n        /* \"#utility.yul\":10674:10686   */\n      and\n        /* \"#utility.yul\":10705:10723   */\n      dup1\n        /* \"#utility.yul\":10695:10776   */\n      tag_259\n      jumpi\n        /* \"#utility.yul\":10761:10765   */\n      0x7f\n        /* \"#utility.yul\":10753:10759   */\n      dup3\n        /* \"#utility.yul\":10749:10766   */\n      and\n        /* \"#utility.yul\":10739:10766   */\n      swap2\n      pop\n        /* \"#utility.yul\":10695:10776   */\n    tag_259:\n        /* \"#utility.yul\":10823:10825   */\n      0x20\n        /* \"#utility.yul\":10815:10821   */\n      dup3\n        /* \"#utility.yul\":10812:10826   */\n      lt\n        /* \"#utility.yul\":10792:10810   */\n      dup2\n        /* \"#utility.yul\":10789:10827   */\n      sub\n        /* \"#utility.yul\":10786:10870   */\n      tag_260\n      jumpi\n        /* \"#utility.yul\":10842:10860   */\n      tag_261\n      tag_126\n      jump\t// in\n    tag_261:\n        /* \"#utility.yul\":10786:10870   */\n    tag_260:\n        /* \"#utility.yul\":10607:10876   */\n      pop\n        /* \"#utility.yul\":10556:10876   */\n      swap2\n      swap1\n      pop\n      jump\t// out\n        /* \"#utility.yul\":10882:11057   */\n    tag_127:\n        /* \"#utility.yul\":11022:11049   */\n      0x446f6d61696e20616c7265616479207265676973746572656400000000000000\n        /* \"#utility.yul\":11018:11019   */\n      0x00\n        /* \"#utility.yul\":11010:11016   */\n      dup3\n        /* \"#utility.yul\":11006:11020   */\n      add\n        /* \"#utility.yul\":10999:11050   */\n      mstore\n        /* \"#utility.yul\":10882:11057   */\n      pop\n      jump\t// out\n        /* \"#utility.yul\":11063:11429   */\n    tag_128:\n        /* \"#utility.yul\":11205:11208   */\n      0x00\n        /* \"#utility.yul\":11226:11293   */\n      tag_264\n        /* \"#utility.yul\":11290:11292   */\n      0x19\n        /* \"#utility.yul\":11285:11288   */\n      dup4\n        /* \"#utility.yul\":11226:11293   */\n      tag_116\n      jump\t// in\n    tag_264:\n        /* \"#utility.yul\":11219:11293   */\n      swap2\n      pop\n        /* \"#utility.yul\":11302:11395   */\n      tag_265\n        /* \"#utility.yul\":11391:11394   */\n      dup3\n        /* \"#utility.yul\":11302:11395   */\n      tag_127\n      jump\t// in\n    tag_265:\n        /* \"#utility.yul\":11420:11422   */\n      0x20\n        /* \"#utility.yul\":11415:11418   */\n      dup3\n        /* \"#utility.yul\":11411:11423   */\n      add\n        /* \"#utility.yul\":11404:11423   */\n      swap1\n      pop\n        /* \"#utility.yul\":11063:11429   */\n      swap2\n      swap1\n      pop\n      jump\t// out\n        /* \"#utility.yul\":11435:11854   */\n    tag_74:\n        /* \"#utility.yul\":11601:11605   */\n      0x00\n        /* \"#utility.yul\":11639:11641   */\n      0x20\n        /* \"#utility.yul\":11628:11637   */\n      dup3\n        /* \"#utility.yul\":11624:11642   */\n      add\n        /* \"#utility.yul\":11616:11642   */\n      swap1\n      pop\n        /* \"#utility.yul\":11688:11697   */\n      dup2\n        /* \"#utility.yul\":11682:11686   */\n      dup2\n        /* \"#utility.yul\":11678:11698   */\n      sub\n        /* \"#utility.yul\":11674:11675   */\n      0x00\n        /* \"#utility.yul\":11663:11672   */\n      dup4\n        /* \"#utility.yul\":11659:11676   */\n      add\n        /* \"#utility.yul\":11652:11699   */\n      mstore\n        /* \"#utility.yul\":11716:11847   */\n      tag_267\n        /* \"#utility.yul\":11842:11846   */\n      dup2\n        /* \"#utility.yul\":11716:11847   */\n      tag_128\n      jump\t// in\n    tag_267:\n        /* \"#utility.yul\":11708:11847   */\n      swap1\n      pop\n        /* \"#utility.yul\":11435:11854   */\n      swap2\n      swap1\n      pop\n      jump\t// out\n        /* \"#utility.yul\":11860:12039   */\n    tag_129:\n        /* \"#utility.yul\":12000:12031   */\n      0x496e73756666696369656e7420726567697374726174696f6e20666565000000\n        /* \"#utility.yul\":11996:11997   */\n      0x00\n        /* \"#utility.yul\":11988:11994   */\n      dup3\n        /* \"#utility.yul\":11984:11998   */\n      add\n        /* \"#utility.yul\":11977:12032   */\n      mstore\n        /* \"#utility.yul\":11860:12039   */\n      pop\n      jump\t// out\n        /* \"#utility.yul\":12045:12411   */\n    tag_130:\n        /* \"#utility.yul\":12187:12190   */\n      0x00\n        /* \"#utility.yul\":12208:12275   */\n      tag_270\n        /* \"#utility.yul\":12272:12274   */\n      0x1d\n        /* \"#utility.yul\":12267:12270   */\n      dup4\n        /* \"#utility.yul\":12208:12275   */\n      tag_116\n      jump\t// in\n    tag_270:\n        /* \"#utility.yul\":12201:12275   */\n      swap2\n      pop\n        /* \"#utility.yul\":12284:12377   */\n      tag_271\n        /* \"#utility.yul\":12373:12376   */\n      dup3\n        /* \"#utility.yul\":12284:12377   */\n      tag_129\n      jump\t// in\n    tag_271:\n        /* \"#utility.yul\":12402:12404   */\n      0x20\n        /* \"#utility.yul\":12397:12400   */\n      dup3\n        /* \"#utility.yul\":12393:12405   */\n      add\n        /* \"#utility.yul\":12386:12405   */\n      swap1\n      pop\n        /* \"#utility.yul\":12045:12411   */\n      swap2\n      swap1\n      pop\n      jump\t// out\n        /* \"#utility.yul\":12417:12836   */\n    tag_77:\n        /* \"#utility.yul\":12583:12587   */\n      0x00\n        /* \"#utility.yul\":12621:12623   */\n      0x20\n        /* \"#utility.yul\":12610:12619   */\n      dup3\n        /* \"#utility.yul\":12606:12624   */\n      add\n        /* \"#utility.yul\":12598:12624   */\n      swap1\n      pop\n        /* \"#utility.yul\":12670:12679   */\n      dup2\n        /* \"#utility.yul\":12664:12668   */\n      dup2\n        /* \"#utility.yul\":12660:12680   */\n      sub\n        /* \"#utility.yul\":12656:12657   */\n      0x00\n        /* \"#utility.yul\":12645:12654   */\n      dup4\n        /* \"#utility.yul\":12641:12658   */\n      add\n        /* \"#utility.yul\":12634:12681   */\n      mstore\n        /* \"#utility.yul\":12698:12829   */\n      tag_273\n        /* \"#utility.yul\":12824:12828   */\n      dup2\n        /* \"#utility.yul\":12698:12829   */\n      tag_130\n      jump\t// in\n    tag_273:\n        /* \"#utility.yul\":12690:12829   */\n      swap1\n      pop\n        /* \"#utility.yul\":12417:12836   */\n      swap2\n      swap1\n      pop\n      jump\t// out\n        /* \"#utility.yul\":12842:13022   */\n    tag_131:\n        /* \"#utility.yul\":12890:12967   */\n      0x4e487b7100000000000000000000000000000000000000000000000000000000\n        /* \"#utility.yul\":12887:12888   */\n      0x00\n        /* \"#utility.yul\":12880:12968   */\n      mstore\n        /* \"#utility.yul\":12987:12991   */\n      0x11\n        /* \"#utility.yul\":12984:12985   */\n      0x04\n        /* \"#utility.yul\":12977:12992   */\n      mstore\n        /* \"#utility.yul\":13011:13015   */\n      0x24\n        /* \"#utility.yul\":13008:13009   */\n      0x00\n        /* \"#utility.yul\":13001:13016   */\n      revert\n        /* \"#utility.yul\":13028:13219   */\n    tag_81:\n        /* \"#utility.yul\":13068:13071   */\n      0x00\n        /* \"#utility.yul\":13087:13107   */\n      tag_276\n        /* \"#utility.yul\":13105:13106   */\n      dup3\n        /* \"#utility.yul\":13087:13107   */\n      tag_109\n      jump\t// in\n    tag_276:\n        /* \"#utility.yul\":13082:13107   */\n      swap2\n      pop\n        /* \"#utility.yul\":13121:13141   */\n      tag_277\n        /* \"#utility.yul\":13139:13140   */\n      dup4\n        /* \"#utility.yul\":13121:13141   */\n      tag_109\n      jump\t// in\n    tag_277:\n        /* \"#utility.yul\":13116:13141   */\n      swap3\n      pop\n        /* \"#utility.yul\":13164:13165   */\n      dup3\n        /* \"#utility.yul\":13161:13162   */\n      dup3\n        /* \"#utility.yul\":13157:13166   */\n      add\n        /* \"#utility.yul\":13150:13166   */\n      swap1\n      pop\n        /* \"#utility.yul\":13185:13188   */\n      dup1\n        /* \"#utility.yul\":13182:13183   */\n      dup3\n        /* \"#utility.yul\":13179:13189   */\n      gt\n        /* \"#utility.yul\":13176:13212   */\n      iszero\n      tag_278\n      jumpi\n        /* \"#utility.yul\":13192:13210   */\n      tag_279\n      tag_131\n      jump\t// in\n    tag_279:\n        /* \"#utility.yul\":13176:13212   */\n    tag_278:\n        /* \"#utility.yul\":13028:13219   */\n      swap3\n      swap2\n      pop\n      pop\n      jump\t// out\n        /* \"#utility.yul\":13225:13366   */\n    tag_132:\n        /* \"#utility.yul\":13274:13278   */\n      0x00\n        /* \"#utility.yul\":13297:13300   */\n      dup2\n        /* \"#utility.yul\":13289:13300   */\n      swap1\n      pop\n        /* \"#utility.yul\":13320:13323   */\n      dup2\n        /* \"#utility.yul\":13317:13318   */\n      0x00\n        /* \"#utility.yul\":13310:13324   */\n      mstore\n        /* \"#utility.yul\":13354:13358   */\n      0x20\n        /* \"#utility.yul\":13351:13352   */\n      0x00\n        /* \"#utility.yul\":13341:13359   */\n      keccak256\n        /* \"#utility.yul\":13333:13359   */\n      swap1\n      pop\n        /* \"#utility.yul\":13225:13366   */\n      swap2\n      swap1\n      pop\n      jump\t// out\n        /* \"#utility.yul\":13372:13465   */\n    tag_133:\n        /* \"#utility.yul\":13409:13415   */\n      0x00\n        /* \"#utility.yul\":13456:13458   */\n      0x20\n        /* \"#utility.yul\":13451:13453   */\n      0x1f\n        /* \"#utility.yul\":13444:13449   */\n      dup4\n        /* \"#utility.yul\":13440:13454   */\n      add\n        /* \"#utility.yul\":13436:13459   */\n      div\n        /* \"#utility.yul\":13426:13459   */\n      swap1\n      pop\n        /* \"#utility.yul\":13372:13465   */\n      swap2\n      swap1\n      pop\n      jump\t// out\n        /* \"#utility.yul\":13471:13578   */\n    tag_134:\n        /* \"#utility.yul\":13515:13523   */\n      0x00\n        /* \"#utility.yul\":13565:13570   */\n      dup3\n        /* \"#utility.yul\":13559:13563   */\n      dup3\n        /* \"#utility.yul\":13555:13571   */\n      shl\n        /* \"#utility.yul\":13534:13571   */\n      swap1\n      pop\n        /* \"#utility.yul\":13471:13578   */\n      swap3\n      swap2\n      pop\n      pop\n      jump\t// out\n        /* \"#utility.yul\":13584:13977   */\n    tag_135:\n        /* \"#utility.yul\":13653:13659   */\n      0x00\n        /* \"#utility.yul\":13703:13704   */\n      0x08\n        /* \"#utility.yul\":13691:13701   */\n      dup4\n        /* \"#utility.yul\":13687:13705   */\n      mul\n        /* \"#utility.yul\":13726:13823   */\n      tag_284\n        /* \"#utility.yul\":13756:13822   */\n      0xffffffffffffffffffffffffffffffffffffffffffffffffffffffffffffffff\n        /* \"#utility.yul\":13745:13754   */\n      dup3\n        /* \"#utility.yul\":13726:13823   */\n      tag_134\n      jump\t// in\n    tag_284:\n        /* \"#utility.yul\":13844:13883   */\n      tag_285\n        /* \"#utility.yul\":13874:13882   */\n      dup7\n        /* \"#utility.yul\":13863:13872   */\n      dup4\n        /* \"#utility.yul\":13844:13883   */\n      tag_134\n      jump\t// in\n    tag_285:\n        /* \"#utility.yul\":13832:13883   */\n      swap6\n      pop\n        /* \"#utility.yul\":13916:13920   */\n      dup1\n        /* \"#utility.yul\":13912:13921   */\n      not\n        /* \"#utility.yul\":13905:13910   */\n      dup5\n        /* \"#utility.yul\":13901:13922   */\n      and\n        /* \"#utility.yul\":13892:13922   */\n      swap4\n      pop\n        /* \"#utility.yul\":13965:13969   */\n      dup1\n        /* \"#utility.yul\":13955:13963   */\n      dup7\n        /* \"#utility.yul\":13951:13970   */\n      and\n        /* \"#utility.yul\":13944:13949   */\n      dup5\n        /* \"#utility.yul\":13941:13971   */\n      or\n        /* \"#utility.yul\":13931:13971   */\n      swap3\n      pop\n        /* \"#utility.yul\":13660:13977   */\n      pop\n      pop\n        /* \"#utility.yul\":13584:13977   */\n      swap4\n      swap3\n      pop\n      pop\n      pop\n      jump\t// out\n        /* \"#utility.yul\":13983:14043   */\n    tag_136:\n        /* \"#utility.yul\":14011:14014   */\n      0x00\n        /* \"#utility.yul\":14032:14037   */\n      dup2\n        /* \"#utility.yul\":14025:14037   */\n      swap1\n      pop\n        /* \"#utility.yul\":13983:14043   */\n      swap2\n      swap1\n      pop\n      jump\t// out\n        /* \"#utility.yul\":14049:14191   */\n    tag_137:\n        /* \"#utility.yul\":14099:14108   */\n      0x00\n        /* \"#utility.yul\":14132:14185   */\n      tag_288\n        /* \"#utility.yul\":14150:14184   */\n      tag_289\n        /* \"#utility.yul\":14159:14183   */\n      tag_290\n        /* \"#utility.yul\":14177:14182   */\n      dup5\n        /* \"#utility.yul\":14159:14183   */\n      tag_109\n      jump\t// in\n    tag_290:\n        /* \"#utility.yul\":14150:14184   */\n      tag_136\n      jump\t// in\n    tag_289:\n        /* \"#utility.yul\":14132:14185   */\n      tag_109\n      jump\t// in\n    tag_288:\n        /* \"#utility.yul\":14119:14185   */\n      swap1\n      pop\n        /* \"#utility.yul\":14049:14191   */\n      swap2\n      swap1\n      pop\n      jump\t// out\n        /* \"#utility.yul\":14197:14272   */\n    tag_138:\n        /* \"#utility.yul\":14240:14243   */\n      0x00\n        /* \"#utility.yul\":14261:14266   */\n      dup2\n        /* \"#utility.yul\":14254:14266   */\n      swap1\n      pop\n        /* \"#utility.yul\":14197:14272   */\n      swap2\n      swap1\n      pop\n      jump\t// out\n        /* \"#utility.yul\":14278:14547   */\n    tag_139:\n        /* \"#utility.yul\":14388:14427   */\n      tag_293\n        /* \"#utility.yul\":14419:14426   */\n      dup4\n        /* \"#utility.yul\":14388:14427   */\n      tag_137\n      jump\t// in\n    tag_293:\n        /* \"#utility.yul\":14449:14540   */\n      tag_294\n        /* \"#utility.yul\":14498:14539   */\n      tag_295\n        /* \"#utility.yul\":14522:14538   */\n      dup3\n        /* \"#utility.yul\":14498:14539   */\n      tag_138\n      jump\t// in\n    tag_295:\n        /* \"#utility.yul\":14490:14496   */\n      dup5\n        /* \"#utility.yul\":14483:14487   */\n      dup5\n        /* \"#utility.yul\":14477:14488   */\n      sload\n        /* \"#utility.yul\":14449:14540   */\n      tag_135\n      jump\t// in\n    tag_294:\n        /* \"#utility.yul\":14443:14447   */\n      dup3\n        /* \"#utility.yul\":14436:14541   */\n      sstore\n        /* \"#utility.yul\":14354:14547   */\n      pop\n        /* \"#utility.yul\":14278:14547   */\n      pop\n      pop\n      pop\n      jump\t// out\n        /* \"#utility.yul\":14553:14626   */\n    tag_140:\n        /* \"#utility.yul\":14598:14601   */\n      0x00\n        /* \"#utility.yul\":14553:14626   */\n      swap1\n      jump\t// out\n        /* \"#utility.yul\":14632:14821   */\n    tag_141:\n        /* \"#utility.yul\":14709:14741   */\n      tag_298\n      tag_140\n      jump\t// in\n    tag_298:\n        /* \"#utility.yul\":14750:14815   */\n      tag_299\n        /* \"#utility.yul\":14808:14814   */\n      dup2\n        /* \"#utility.yul\":14800:14806   */\n      dup5\n        /* \"#utility.yul\":14794:14798   */\n      dup5\n        /* \"#utility.yul\":14750:14815   */\n      tag_139\n      jump\t// in\n    tag_299:\n        /* \"#utility.yul\":14685:14821   */\n      pop\n        /* \"#utility.yul\":14632:14821   */\n      pop\n      pop\n      jump\t// out\n        /* \"#utility.yul\":14827:15013   */\n    tag_142:\n        /* \"#utility.yul\":14887:15007   */\n    tag_301:\n        /* \"#utility.yul\":14904:14907   */\n      dup2\n        /* \"#utility.yul\":14897:14902   */\n      dup2\n        /* \"#utility.yul\":14894:14908   */\n      lt\n        /* \"#utility.yul\":14887:15007   */\n      iszero\n      tag_303\n      jumpi\n        /* \"#utility.yul\":14958:14997   */\n      tag_304\n        /* \"#utility.yul\":14995:14996   */\n      0x00\n        /* \"#utility.yul\":14988:14993   */\n      dup3\n        /* \"#utility.yul\":14958:14997   */\n      tag_141\n      jump\t// in\n    tag_304:\n        /* \"#utility.yul\":14931:14932   */\n      0x01\n        /* \"#utility.yul\":14924:14929   */\n      dup2\n        /* \"#utility.yul\":14920:14933   */\n      add\n        /* \"#utility.yul\":14911:14933   */\n      swap1\n      pop\n        /* \"#utility.yul\":14887:15007   */\n      jump(tag_301)\n    tag_303:\n        /* \"#utility.yul\":14827:15013   */\n      pop\n      pop\n      jump\t// out\n        /* \"#utility.yul\":15019:15562   */\n    tag_143:\n        /* \"#utility.yul\":15120:15122   */\n      0x1f\n        /* \"#utility.yul\":15115:15118   */\n      dup3\n        /* \"#utility.yul\":15112:15123   */\n      gt\n        /* \"#utility.yul\":15109:15555   */\n      iszero\n      tag_306\n      jumpi\n        /* \"#utility.yul\":15154:15192   */\n      tag_307\n        /* \"#utility.yul\":15186:15191   */\n      dup2\n        /* \"#utility.yul\":15154:15192   */\n      tag_132\n      jump\t// in\n    tag_307:\n        /* \"#utility.yul\":15238:15267   */\n      tag_308\n        /* \"#utility.yul\":15256:15266   */\n      dup5\n        /* \"#utility.yul\":15238:15267   */\n      tag_133\n      jump\t// in\n    tag_308:\n        /* \"#utility.yul\":15228:15236   */\n      dup2\n        /* \"#utility.yul\":15224:15268   */\n      add\n        /* \"#utility.yul\":15421:15423   */\n      0x20\n        /* \"#utility.yul\":15409:15419   */\n      dup6\n        /* \"#utility.yul\":15406:15424   */\n      lt\n        /* \"#utility.yul\":15403:15452   */\n      iszero\n      tag_309\n      jumpi\n        /* \"#utility.yul\":15442:15450   */\n      dup2\n        /* \"#utility.yul\":15427:15450   */\n      swap1\n      pop\n        /* \"#utility.yul\":15403:15452   */\n    tag_309:\n        /* \"#utility.yul\":15465:15545   */\n      tag_310\n        /* \"#utility.yul\":15521:15543   */\n      tag_311\n        /* \"#utility.yul\":15539:15542   */\n      dup6\n        /* \"#utility.yul\":15521:15543   */\n      tag_133\n      jump\t// in\n    tag_311:\n        /* \"#utility.yul\":15511:15519   */\n      dup4\n        /* \"#utility.yul\":15507:15544   */\n      add\n        /* \"#utility.yul\":15494:15505   */\n      dup3\n        /* \"#utility.yul\":15465:15545   */\n      tag_142\n      jump\t// in\n    tag_310:\n        /* \"#utility.yul\":15124:15555   */\n      pop\n      pop\n        /* \"#utility.yul\":15109:15555   */\n    tag_306:\n        /* \"#utility.yul\":15019:15562   */\n      pop\n      pop\n      pop\n      jump\t// out\n        /* \"#utility.yul\":15568:15685   */\n    tag_144:\n        /* \"#utility.yul\":15622:15630   */\n      0x00\n        /* \"#utility.yul\":15672:15677   */\n      dup3\n        /* \"#utility.yul\":15666:15670   */\n      dup3\n        /* \"#utility.yul\":15662:15678   */\n      shr\n        /* \"#utility.yul\":15641:15678   */\n      swap1\n      pop\n        /* \"#utility.yul\":15568:15685   */\n      swap3\n      swap2\n      pop\n      pop\n      jump\t// out\n        /* \"#utility.yul\":15691:15860   */\n    tag_145:\n        /* \"#utility.yul\":15735:15741   */\n      0x00\n        /* \"#utility.yul\":15768:15819   */\n      tag_314\n        /* \"#utility.yul\":15816:15817   */\n      0x00\n        /* \"#utility.yul\":15812:15818   */\n      not\n        /* \"#utility.yul\":15804:15809   */\n      dup5\n        /* \"#utility.yul\":15801:15802   */\n      0x08\n        /* \"#utility.yul\":15797:15810   */\n      mul\n        /* \"#utility.yul\":15768:15819   */\n      tag_144\n      jump\t// in\n    tag_314:\n        /* \"#utility.yul\":15764:15820   */\n      not\n        /* \"#utility.yul\":15849:15853   */\n      dup1\n        /* \"#utility.yul\":15843:15847   */\n      dup4\n        /* \"#utility.yul\":15839:15854   */\n      and\n        /* \"#utility.yul\":15829:15854   */\n      swap2\n      pop\n        /* \"#utility.yul\":15742:15860   */\n      pop\n        /* \"#utility.yul\":15691:15860   */\n      swap3\n      swap2\n      pop\n      pop\n      jump\t// out\n        /* \"#utility.yul\":15865:16160   */\n    tag_146:\n        /* \"#utility.yul\":15941:15945   */\n      0x00\n        /* \"#utility.yul\":16087:16116   */\n      tag_316\n        /* \"#utility.yul\":16112:16115   */\n      dup4\n        /* \"#utility.yul\":16106:16110   */\n      dup4\n        /* \"#utility.yul\":16087:16116   */\n      tag_145\n      jump\t// in\n    tag_316:\n        /* \"#utility.yul\":16079:16116   */\n      swap2\n      pop\n        /* \"#utility.yul\":16149:16152   */\n      dup3\n        /* \"#utility.yul\":16146:16147   */\n      0x02\n        /* \"#utility.yul\":16142:16153   */\n      mul\n        /* \"#utility.yul\":16136:16140   */\n      dup3\n        /* \"#utility.yul\":16133:16154   */\n      or\n        /* \"#utility.yul\":16125:16154   */\n      swap1\n      pop\n        /* \"#utility.yul\":15865:16160   */\n      swap3\n      swap2\n      pop\n      pop\n      jump\t// out\n        /* \"#utility.yul\":16165:17560   */\n    tag_83:\n        /* \"#utility.yul\":16282:16319   */\n      tag_318\n        /* \"#utility.yul\":16315:16318   */\n      dup3\n        /* \"#utility.yul\":16282:16319   */\n      tag_115\n      jump\t// in\n    tag_318:\n        /* \"#utility.yul\":16384:16402   */\n      0xffffffffffffffff\n        /* \"#utility.yul\":16376:16382   */\n      dup2\n        /* \"#utility.yul\":16373:16403   */\n      gt\n        /* \"#utility.yul\":16370:16426   */\n      iszero\n      tag_319\n      jumpi\n        /* \"#utility.yul\":16406:16424   */\n      tag_320\n      tag_100\n      jump\t// in\n    tag_320:\n        /* \"#utility.yul\":16370:16426   */\n    tag_319:\n        /* \"#utility.yul\":16450:16488   */\n      tag_321\n        /* \"#utility.yul\":16482:16486   */\n      dup3\n        /* \"#utility.yul\":16476:16487   */\n      sload\n        /* \"#utility.yul\":16450:16488   */\n      tag_65\n      jump\t// in\n    tag_321:\n        /* \"#utility.yul\":16535:16602   */\n      tag_322\n        /* \"#utility.yul\":16595:16601   */\n      dup3\n        /* \"#utility.yul\":16587:16593   */\n      dup3\n        /* \"#utility.yul\":16581:16585   */\n      dup6\n        /* \"#utility.yul\":16535:16602   */\n      tag_143\n      jump\t// in\n    tag_322:\n        /* \"#utility.yul\":16629:16630   */\n      0x00\n        /* \"#utility.yul\":16653:16657   */\n      0x20\n        /* \"#utility.yul\":16640:16657   */\n      swap1\n      pop\n        /* \"#utility.yul\":16685:16687   */\n      0x1f\n        /* \"#utility.yul\":16677:16683   */\n      dup4\n        /* \"#utility.yul\":16674:16688   */\n      gt\n        /* \"#utility.yul\":16702:16703   */\n      0x01\n        /* \"#utility.yul\":16697:17315   */\n      dup2\n      eq\n      tag_324\n      jumpi\n        /* \"#utility.yul\":17359:17360   */\n      0x00\n        /* \"#utility.yul\":17376:17382   */\n      dup5\n        /* \"#utility.yul\":17373:17450   */\n      iszero\n      tag_325\n      jumpi\n        /* \"#utility.yul\":17425:17434   */\n      dup3\n        /* \"#utility.yul\":17420:17423   */\n      dup8\n        /* \"#utility.yul\":17416:17435   */\n      add\n        /* \"#utility.yul\":17410:17436   */\n      mload\n        /* \"#utility.yul\":17401:17436   */\n      swap1\n      pop\n        /* \"#utility.yul\":17373:17450   */\n    tag_325:\n        /* \"#utility.yul\":17476:17543   */\n      tag_326\n        /* \"#utility.yul\":17536:17542   */\n      dup6\n        /* \"#utility.yul\":17529:17534   */\n      dup3\n        /* \"#utility.yul\":17476:17543   */\n      tag_146\n      jump\t// in\n    tag_326:\n        /* \"#utility.yul\":17470:17474   */\n      dup7\n        /* \"#utility.yul\":17463:17544   */\n      sstore\n        /* \"#utility.yul\":17332:17554   */\n      pop\n        /* \"#utility.yul\":16667:17554   */\n      jump(tag_323)\n        /* \"#utility.yul\":16697:17315   */\n    tag_324:\n        /* \"#utility.yul\":16749:16753   */\n      0x1f\n        /* \"#utility.yul\":16745:16754   */\n      not\n        /* \"#utility.yul\":16737:16743   */\n      dup5\n        /* \"#utility.yul\":16733:16755   */\n      and\n        /* \"#utility.yul\":16783:16820   */\n      tag_327\n        /* \"#utility.yul\":16815:16819   */\n      dup7\n        /* \"#utility.yul\":16783:16820   */\n      tag_132\n      jump\t// in\n    tag_327:\n        /* \"#utility.yul\":16842:16843   */\n      0x00\n        /* \"#utility.yul\":16856:17064   */\n    tag_328:\n        /* \"#utility.yul\":16870:16877   */\n      dup3\n        /* \"#utility.yul\":16867:16868   */\n      dup2\n        /* \"#utility.yul\":16864:16878   */\n      lt\n        /* \"#utility.yul\":16856:17064   */\n      iszero\n      tag_330\n      jumpi\n        /* \"#utility.yul\":16949:16958   */\n      dup5\n        /* \"#utility.yul\":16944:16947   */\n      dup10\n        /* \"#utility.yul\":16940:16959   */\n      add\n        /* \"#utility.yul\":16934:16960   */\n      mload\n        /* \"#utility.yul\":16926:16932   */\n      dup3\n        /* \"#utility.yul\":16919:16961   */\n      sstore\n        /* \"#utility.yul\":17000:17001   */\n      0x01\n        /* \"#utility.yul\":16992:16998   */\n      dup3\n        /* \"#utility.yul\":16988:17002   */\n      add\n        /* \"#utility.yul\":16978:17002   */\n      swap2\n      pop\n        /* \"#utility.yul\":17047:17049   */\n      0x20\n        /* \"#utility.yul\":17036:17045   */\n      dup6\n        /* \"#utility.yul\":17032:17050   */\n      add\n        /* \"#utility.yul\":17019:17050   */\n      swap5\n      pop\n        /* \"#utility.yul\":16893:16897   */\n      0x20\n        /* \"#utility.yul\":16890:16891   */\n      dup2\n        /* \"#utility.yul\":16886:16898   */\n      add\n        /* \"#utility.yul\":16881:16898   */\n      swap1\n      pop\n        /* \"#utility.yul\":16856:17064   */\n      jump(tag_328)\n    tag_330:\n        /* \"#utility.yul\":17092:17098   */\n      dup7\n        /* \"#utility.yul\":17083:17090   */\n      dup4\n        /* \"#utility.yul\":17080:17099   */\n      lt\n        /* \"#utility.yul\":17077:17256   */\n      iszero\n      tag_331\n      jumpi\n        /* \"#utility.yul\":17150:17159   */\n      dup5\n        /* \"#utility.yul\":17145:17148   */\n      dup10\n        /* \"#utility.yul\":17141:17160   */\n      add\n        /* \"#utility.yul\":17135:17161   */\n      mload\n        /* \"#utility.yul\":17193:17241   */\n      tag_332\n        /* \"#utility.yul\":17235:17239   */\n      0x1f\n        /* \"#utility.yul\":17227:17233   */\n      dup10\n        /* \"#utility.yul\":17223:17240   */\n      and\n        /* \"#utility.yul\":17212:17221   */\n      dup3\n        /* \"#utility.yul\":17193:17241   */\n      tag_145\n      jump\t// in\n    tag_332:\n        /* \"#utility.yul\":17185:17191   */\n      dup4\n        /* \"#utility.yul\":17178:17242   */\n      sstore\n        /* \"#utility.yul\":17100:17256   */\n      pop\n        /* \"#utility.yul\":17077:17256   */\n    tag_331:\n        /* \"#utility.yul\":17302:17303   */\n      0x01\n        /* \"#utility.yul\":17298:17299   */\n      0x02\n        /* \"#utility.yul\":17290:17296   */\n      dup9\n        /* \"#utility.yul\":17286:17300   */\n      mul\n        /* \"#utility.yul\":17282:17304   */\n      add\n        /* \"#utility.yul\":17276:17280   */\n      dup9\n        /* \"#utility.yul\":17269:17305   */\n      sstore\n        /* \"#utility.yul\":16704:17315   */\n      pop\n      pop\n      pop\n        /* \"#utility.yul\":16667:17554   */\n    tag_323:\n      pop\n        /* \"#utility.yul\":16257:17560   */\n      pop\n      pop\n      pop\n        /* \"#utility.yul\":16165:17560   */\n      pop\n      pop\n      jump\t// out\n\n    auxdata: 0xa2646970667358221220f5cbfe6319d1bcd09ab74ea9937fe8b67f78414b740822b9c2353822863cb6ed64736f6c634300081a0033\n}\n",
				"bytecode": {
					"linkReferences": {},
					"object": "6080604052662386f26fc100006001553480156019575f80fd5b503360025f6101000a81548173ffffffffffffffffffffffffffffffffffffffff021916908373ffffffffffffffffffffffffffffffffffffffff16021790555061116f806100675f395ff3fe60806040526004361061007a575f3560e01c806387a3d5551161004d57806387a3d55514610148578063c722f17714610164578063ce606ee0146101a2578063f5fb9de3146101cc5761007a565b8063098799621461007e57806314c44e09146100ba57806319fbe87e146100e4578063364460f31461010c575b5f80fd5b348015610089575f80fd5b506100a4600480360381019061009f919061097c565b6101f4565b6040516100b191906109db565b60405180910390f35b3480156100c5575f80fd5b506100ce610223565b6040516100db9190610a0c565b60405180910390f35b3480156100ef575f80fd5b5061010a60048036038101906101059190610a7f565b610229565b005b348015610117575f80fd5b50610132600480360381019061012d919061097c565b610329565b60405161013f9190610b39565b60405180910390f35b610162600480360381019061015d9190610b59565b610451565b005b34801561016f575f80fd5b5061018a60048036038101906101859190610bf9565b610664565b60405161019993929190610c33565b60405180910390f35b3480156101ad575f80fd5b506101b661072e565b6040516101c39190610c6f565b60405180910390f35b3480156101d7575f80fd5b506101f260048036038101906101ed919061097c565b610753565b005b5f816040516020016102069190610cc2565b604051602081830303815290604052805190602001209050919050565b60015481565b5f610233836101f4565b90503373ffffffffffffffffffffffffffffffffffffffff165f808381526020019081526020015f205f015f9054906101000a900473ffffffffffffffffffffffffffffffffffffffff1673ffffffffffffffffffffffffffffffffffffffff16146102d4576040517f08c379a00000000000000000000000000000000000000000000000000000000081526004016102cb90610d22565b60405180910390fd5b815f808381526020019081526020015f205f015f6101000a81548173ffffffffffffffffffffffffffffffffffffffff021916908373ffffffffffffffffffffffffffffffffffffffff160217905550505050565b60605f610335836101f4565b90505f805f8381526020019081526020015f206040518060600160405290815f82015f9054906101000a900473ffffffffffffffffffffffffffffffffffffffff1673ffffffffffffffffffffffffffffffffffffffff1673ffffffffffffffffffffffffffffffffffffffff1681526020016001820180546103b790610d6d565b80601f01602080910402602001604051908101604052809291908181526020018280546103e390610d6d565b801561042e5780601f106104055761010080835404028352916020019161042e565b820191905f5260205f20905b81548152906001019060200180831161041157829003601f168201915b505050505081526020016002820154815250509050806020015192505050919050565b5f61045b836101f4565b90505f73ffffffffffffffffffffffffffffffffffffffff165f808381526020019081526020015f205f015f9054906101000a900473ffffffffffffffffffffffffffffffffffffffff1673ffffffffffffffffffffffffffffffffffffffff16146104fc576040517f08c379a00000000000000000000000000000000000000000000000000000000081526004016104f390610de7565b60405180910390fd5b600154341015610541576040517f08c379a000000000000000000000000000000000000000000000000000000000815260040161053890610e4f565b60405180910390fd5b60025f9054906101000a900473ffffffffffffffffffffffffffffffffffffffff1673ffffffffffffffffffffffffffffffffffffffff166108fc60015490811502906040515f60405180830381858888f193505050501580156105a7573d5f803e3d5ffd5b5060405180606001604052803373ffffffffffffffffffffffffffffffffffffffff1681526020018381526020016301e13380426105e59190610e9a565b8152505f808381526020019081526020015f205f820151815f015f6101000a81548173ffffffffffffffffffffffffffffffffffffffff021916908373ffffffffffffffffffffffffffffffffffffffff1602179055506020820151816001019081610651919061106a565b5060408201518160020155905050505050565b5f602052805f5260405f205f91509050805f015f9054906101000a900473ffffffffffffffffffffffffffffffffffffffff16908060010180546106a790610d6d565b80601f01602080910402602001604051908101604052809291908181526020018280546106d390610d6d565b801561071e5780601f106106f55761010080835404028352916020019161071e565b820191905f5260205f20905b81548152906001019060200180831161070157829003601f168201915b5050505050908060020154905083565b60025f9054906101000a900473ffffffffffffffffffffffffffffffffffffffff1681565b5f61075d826101f4565b90503373ffffffffffffffffffffffffffffffffffffffff165f808381526020019081526020015f205f015f9054906101000a900473ffffffffffffffffffffffffffffffffffffffff1673ffffffffffffffffffffffffffffffffffffffff16146107fe576040517f08c379a00000000000000000000000000000000000000000000000000000000081526004016107f590610d22565b60405180910390fd5b6301e133805f808381526020019081526020015f206002015f8282546108249190610e9a565b925050819055505050565b5f604051905090565b5f80fd5b5f80fd5b5f80fd5b5f80fd5b5f601f19601f8301169050919050565b7f4e487b71000000000000000000000000000000000000000000000000000000005f52604160045260245ffd5b61088e82610848565b810181811067ffffffffffffffff821117156108ad576108ac610858565b5b80604052505050565b5f6108bf61082f565b90506108cb8282610885565b919050565b5f67ffffffffffffffff8211156108ea576108e9610858565b5b6108f382610848565b9050602081019050919050565b828183375f83830152505050565b5f61092061091b846108d0565b6108b6565b90508281526020810184848401111561093c5761093b610844565b5b610947848285610900565b509392505050565b5f82601f83011261096357610962610840565b5b813561097384826020860161090e565b91505092915050565b5f6020828403121561099157610990610838565b5b5f82013567ffffffffffffffff8111156109ae576109ad61083c565b5b6109ba8482850161094f565b91505092915050565b5f819050919050565b6109d5816109c3565b82525050565b5f6020820190506109ee5f8301846109cc565b92915050565b5f819050919050565b610a06816109f4565b82525050565b5f602082019050610a1f5f8301846109fd565b92915050565b5f73ffffffffffffffffffffffffffffffffffffffff82169050919050565b5f610a4e82610a25565b9050919050565b610a5e81610a44565b8114610a68575f80fd5b50565b5f81359050610a7981610a55565b92915050565b5f8060408385031215610a9557610a94610838565b5b5f83013567ffffffffffffffff811115610ab257610ab161083c565b5b610abe8582860161094f565b9250506020610acf85828601610a6b565b9150509250929050565b5f81519050919050565b5f82825260208201905092915050565b8281835e5f83830152505050565b5f610b0b82610ad9565b610b158185610ae3565b9350610b25818560208601610af3565b610b2e81610848565b840191505092915050565b5f6020820190508181035f830152610b518184610b01565b905092915050565b5f8060408385031215610b6f57610b6e610838565b5b5f83013567ffffffffffffffff811115610b8c57610b8b61083c565b5b610b988582860161094f565b925050602083013567ffffffffffffffff811115610bb957610bb861083c565b5b610bc58582860161094f565b9150509250929050565b610bd8816109c3565b8114610be2575f80fd5b50565b5f81359050610bf381610bcf565b92915050565b5f60208284031215610c0e57610c0d610838565b5b5f610c1b84828501610be5565b91505092915050565b610c2d81610a44565b82525050565b5f606082019050610c465f830186610c24565b8181036020830152610c588185610b01565b9050610c6760408301846109fd565b949350505050565b5f602082019050610c825f830184610c24565b92915050565b5f81905092915050565b5f610c9c82610ad9565b610ca68185610c88565b9350610cb6818560208601610af3565b80840191505092915050565b5f610ccd8284610c92565b915081905092915050565b7f4e6f7420746865206f776e6572000000000000000000000000000000000000005f82015250565b5f610d0c600d83610ae3565b9150610d1782610cd8565b602082019050919050565b5f6020820190508181035f830152610d3981610d00565b9050919050565b7f4e487b71000000000000000000000000000000000000000000000000000000005f52602260045260245ffd5b5f6002820490506001821680610d8457607f821691505b602082108103610d9757610d96610d40565b5b50919050565b7f446f6d61696e20616c72656164792072656769737465726564000000000000005f82015250565b5f610dd1601983610ae3565b9150610ddc82610d9d565b602082019050919050565b5f6020820190508181035f830152610dfe81610dc5565b9050919050565b7f496e73756666696369656e7420726567697374726174696f6e206665650000005f82015250565b5f610e39601d83610ae3565b9150610e4482610e05565b602082019050919050565b5f6020820190508181035f830152610e6681610e2d565b9050919050565b7f4e487b71000000000000000000000000000000000000000000000000000000005f52601160045260245ffd5b5f610ea4826109f4565b9150610eaf836109f4565b9250828201905080821115610ec757610ec6610e6d565b5b92915050565b5f819050815f5260205f209050919050565b5f6020601f8301049050919050565b5f82821b905092915050565b5f60088302610f297fffffffffffffffffffffffffffffffffffffffffffffffffffffffffffffffff82610eee565b610f338683610eee565b95508019841693508086168417925050509392505050565b5f819050919050565b5f610f6e610f69610f64846109f4565b610f4b565b6109f4565b9050919050565b5f819050919050565b610f8783610f54565b610f9b610f9382610f75565b848454610efa565b825550505050565b5f90565b610faf610fa3565b610fba818484610f7e565b505050565b5b81811015610fdd57610fd25f82610fa7565b600181019050610fc0565b5050565b601f82111561102257610ff381610ecd565b610ffc84610edf565b8101602085101561100b578190505b61101f61101785610edf565b830182610fbf565b50505b505050565b5f82821c905092915050565b5f6110425f1984600802611027565b1980831691505092915050565b5f61105a8383611033565b9150826002028217905092915050565b61107382610ad9565b67ffffffffffffffff81111561108c5761108b610858565b5b6110968254610d6d565b6110a1828285610fe1565b5f60209050601f8311600181146110d2575f84156110c0578287015190505b6110ca858261104f565b865550611131565b601f1984166110e086610ecd565b5f5b82811015611107578489015182556001820191506020850194506020810190506110e2565b868310156111245784890151611120601f891682611033565b8355505b6001600288020188555050505b50505050505056fea2646970667358221220f5cbfe6319d1bcd09ab74ea9937fe8b67f78414b740822b9c2353822863cb6ed64736f6c634300081a0033",
					"opcodes": "PUSH1 0x80 PUSH1 0x40 MSTORE PUSH7 0x2386F26FC10000 PUSH1 0x1 SSTORE CALLVALUE DUP1 ISZERO PUSH1 0x19 JUMPI PUSH0 DUP1 REVERT JUMPDEST POP CALLER PUSH1 0x2 PUSH0 PUSH2 0x100 EXP DUP2 SLOAD DUP2 PUSH20 0xFFFFFFFFFFFFFFFFFFFFFFFFFFFFFFFFFFFFFFFF MUL NOT AND SWAP1 DUP4 PUSH20 0xFFFFFFFFFFFFFFFFFFFFFFFFFFFFFFFFFFFFFFFF AND MUL OR SWAP1 SSTORE POP PUSH2 0x116F DUP1 PUSH2 0x67 PUSH0 CODECOPY PUSH0 RETURN INVALID PUSH1 0x80 PUSH1 0x40 MSTORE PUSH1 0x4 CALLDATASIZE LT PUSH2 0x7A JUMPI PUSH0 CALLDATALOAD PUSH1 0xE0 SHR DUP1 PUSH4 0x87A3D555 GT PUSH2 0x4D JUMPI DUP1 PUSH4 0x87A3D555 EQ PUSH2 0x148 JUMPI DUP1 PUSH4 0xC722F177 EQ PUSH2 0x164 JUMPI DUP1 PUSH4 0xCE606EE0 EQ PUSH2 0x1A2 JUMPI DUP1 PUSH4 0xF5FB9DE3 EQ PUSH2 0x1CC JUMPI PUSH2 0x7A JUMP JUMPDEST DUP1 PUSH4 0x9879962 EQ PUSH2 0x7E JUMPI DUP1 PUSH4 0x14C44E09 EQ PUSH2 0xBA JUMPI DUP1 PUSH4 0x19FBE87E EQ PUSH2 0xE4 JUMPI DUP1 PUSH4 0x364460F3 EQ PUSH2 0x10C JUMPI JUMPDEST PUSH0 DUP1 REVERT JUMPDEST CALLVALUE DUP1 ISZERO PUSH2 0x89 JUMPI PUSH0 DUP1 REVERT JUMPDEST POP PUSH2 0xA4 PUSH1 0x4 DUP1 CALLDATASIZE SUB DUP2 ADD SWAP1 PUSH2 0x9F SWAP2 SWAP1 PUSH2 0x97C JUMP JUMPDEST PUSH2 0x1F4 JUMP JUMPDEST PUSH1 0x40 MLOAD PUSH2 0xB1 SWAP2 SWAP1 PUSH2 0x9DB JUMP JUMPDEST PUSH1 0x40 MLOAD DUP1 SWAP2 SUB SWAP1 RETURN JUMPDEST CALLVALUE DUP1 ISZERO PUSH2 0xC5 JUMPI PUSH0 DUP1 REVERT JUMPDEST POP PUSH2 0xCE PUSH2 0x223 JUMP JUMPDEST PUSH1 0x40 MLOAD PUSH2 0xDB SWAP2 SWAP1 PUSH2 0xA0C JUMP JUMPDEST PUSH1 0x40 MLOAD DUP1 SWAP2 SUB SWAP1 RETURN JUMPDEST CALLVALUE DUP1 ISZERO PUSH2 0xEF JUMPI PUSH0 DUP1 REVERT JUMPDEST POP PUSH2 0x10A PUSH1 0x4 DUP1 CALLDATASIZE SUB DUP2 ADD SWAP1 PUSH2 0x105 SWAP2 SWAP1 PUSH2 0xA7F JUMP JUMPDEST PUSH2 0x229 JUMP JUMPDEST STOP JUMPDEST CALLVALUE DUP1 ISZERO PUSH2 0x117 JUMPI PUSH0 DUP1 REVERT JUMPDEST POP PUSH2 0x132 PUSH1 0x4 DUP1 CALLDATASIZE SUB DUP2 ADD SWAP1 PUSH2 0x12D SWAP2 SWAP1 PUSH2 0x97C JUMP JUMPDEST PUSH2 0x329 JUMP JUMPDEST PUSH1 0x40 MLOAD PUSH2 0x13F SWAP2 SWAP1 PUSH2 0xB39 JUMP JUMPDEST PUSH1 0x40 MLOAD DUP1 SWAP2 SUB SWAP1 RETURN JUMPDEST PUSH2 0x162 PUSH1 0x4 DUP1 CALLDATASIZE SUB DUP2 ADD SWAP1 PUSH2 0x15D SWAP2 SWAP1 PUSH2 0xB59 JUMP JUMPDEST PUSH2 0x451 JUMP JUMPDEST STOP JUMPDEST CALLVALUE DUP1 ISZERO PUSH2 0x16F JUMPI PUSH0 DUP1 REVERT JUMPDEST POP PUSH2 0x18A PUSH1 0x4 DUP1 CALLDATASIZE SUB DUP2 ADD SWAP1 PUSH2 0x185 SWAP2 SWAP1 PUSH2 0xBF9 JUMP JUMPDEST PUSH2 0x664 JUMP JUMPDEST PUSH1 0x40 MLOAD PUSH2 0x199 SWAP4 SWAP3 SWAP2 SWAP1 PUSH2 0xC33 JUMP JUMPDEST PUSH1 0x40 MLOAD DUP1 SWAP2 SUB SWAP1 RETURN JUMPDEST CALLVALUE DUP1 ISZERO PUSH2 0x1AD JUMPI PUSH0 DUP1 REVERT JUMPDEST POP PUSH2 0x1B6 PUSH2 0x72E JUMP JUMPDEST PUSH1 0x40 MLOAD PUSH2 0x1C3 SWAP2 SWAP1 PUSH2 0xC6F JUMP JUMPDEST PUSH1 0x40 MLOAD DUP1 SWAP2 SUB SWAP1 RETURN JUMPDEST CALLVALUE DUP1 ISZERO PUSH2 0x1D7 JUMPI PUSH0 DUP1 REVERT JUMPDEST POP PUSH2 0x1F2 PUSH1 0x4 DUP1 CALLDATASIZE SUB DUP2 ADD SWAP1 PUSH2 0x1ED SWAP2 SWAP1 PUSH2 0x97C JUMP JUMPDEST PUSH2 0x753 JUMP JUMPDEST STOP JUMPDEST PUSH0 DUP2 PUSH1 0x40 MLOAD PUSH1 0x20 ADD PUSH2 0x206 SWAP2 SWAP1 PUSH2 0xCC2 JUMP JUMPDEST PUSH1 0x40 MLOAD PUSH1 0x20 DUP2 DUP4 SUB SUB DUP2 MSTORE SWAP1 PUSH1 0x40 MSTORE DUP1 MLOAD SWAP1 PUSH1 0x20 ADD KECCAK256 SWAP1 POP SWAP2 SWAP1 POP JUMP JUMPDEST PUSH1 0x1 SLOAD DUP2 JUMP JUMPDEST PUSH0 PUSH2 0x233 DUP4 PUSH2 0x1F4 JUMP JUMPDEST SWAP1 POP CALLER PUSH20 0xFFFFFFFFFFFFFFFFFFFFFFFFFFFFFFFFFFFFFFFF AND PUSH0 DUP1 DUP4 DUP2 MSTORE PUSH1 0x20 ADD SWAP1 DUP2 MSTORE PUSH1 0x20 ADD PUSH0 KECCAK256 PUSH0 ADD PUSH0 SWAP1 SLOAD SWAP1 PUSH2 0x100 EXP SWAP1 DIV PUSH20 0xFFFFFFFFFFFFFFFFFFFFFFFFFFFFFFFFFFFFFFFF AND PUSH20 0xFFFFFFFFFFFFFFFFFFFFFFFFFFFFFFFFFFFFFFFF AND EQ PUSH2 0x2D4 JUMPI PUSH1 0x40 MLOAD PUSH32 0x8C379A000000000000000000000000000000000000000000000000000000000 DUP2 MSTORE PUSH1 0x4 ADD PUSH2 0x2CB SWAP1 PUSH2 0xD22 JUMP JUMPDEST PUSH1 0x40 MLOAD DUP1 SWAP2 SUB SWAP1 REVERT JUMPDEST DUP2 PUSH0 DUP1 DUP4 DUP2 MSTORE PUSH1 0x20 ADD SWAP1 DUP2 MSTORE PUSH1 0x20 ADD PUSH0 KECCAK256 PUSH0 ADD PUSH0 PUSH2 0x100 EXP DUP2 SLOAD DUP2 PUSH20 0xFFFFFFFFFFFFFFFFFFFFFFFFFFFFFFFFFFFFFFFF MUL NOT AND SWAP1 DUP4 PUSH20 0xFFFFFFFFFFFFFFFFFFFFFFFFFFFFFFFFFFFFFFFF AND MUL OR SWAP1 SSTORE POP POP POP POP JUMP JUMPDEST PUSH1 0x60 PUSH0 PUSH2 0x335 DUP4 PUSH2 0x1F4 JUMP JUMPDEST SWAP1 POP PUSH0 DUP1 PUSH0 DUP4 DUP2 MSTORE PUSH1 0x20 ADD SWAP1 DUP2 MSTORE PUSH1 0x20 ADD PUSH0 KECCAK256 PUSH1 0x40 MLOAD DUP1 PUSH1 0x60 ADD PUSH1 0x40 MSTORE SWAP1 DUP2 PUSH0 DUP3 ADD PUSH0 SWAP1 SLOAD SWAP1 PUSH2 0x100 EXP SWAP1 DIV PUSH20 0xFFFFFFFFFFFFFFFFFFFFFFFFFFFFFFFFFFFFFFFF AND PUSH20 0xFFFFFFFFFFFFFFFFFFFFFFFFFFFFFFFFFFFFFFFF AND PUSH20 0xFFFFFFFFFFFFFFFFFFFFFFFFFFFFFFFFFFFFFFFF AND DUP2 MSTORE PUSH1 0x20 ADD PUSH1 0x1 DUP3 ADD DUP1 SLOAD PUSH2 0x3B7 SWAP1 PUSH2 0xD6D JUMP JUMPDEST DUP1 PUSH1 0x1F ADD PUSH1 0x20 DUP1 SWAP2 DIV MUL PUSH1 0x20 ADD PUSH1 0x40 MLOAD SWAP1 DUP2 ADD PUSH1 0x40 MSTORE DUP1 SWAP3 SWAP2 SWAP1 DUP2 DUP2 MSTORE PUSH1 0x20 ADD DUP3 DUP1 SLOAD PUSH2 0x3E3 SWAP1 PUSH2 0xD6D JUMP JUMPDEST DUP1 ISZERO PUSH2 0x42E JUMPI DUP1 PUSH1 0x1F LT PUSH2 0x405 JUMPI PUSH2 0x100 DUP1 DUP4 SLOAD DIV MUL DUP4 MSTORE SWAP2 PUSH1 0x20 ADD SWAP2 PUSH2 0x42E JUMP JUMPDEST DUP3 ADD SWAP2 SWAP1 PUSH0 MSTORE PUSH1 0x20 PUSH0 KECCAK256 SWAP1 JUMPDEST DUP2 SLOAD DUP2 MSTORE SWAP1 PUSH1 0x1 ADD SWAP1 PUSH1 0x20 ADD DUP1 DUP4 GT PUSH2 0x411 JUMPI DUP3 SWAP1 SUB PUSH1 0x1F AND DUP3 ADD SWAP2 JUMPDEST POP POP POP POP POP DUP2 MSTORE PUSH1 0x20 ADD PUSH1 0x2 DUP3 ADD SLOAD DUP2 MSTORE POP POP SWAP1 POP DUP1 PUSH1 0x20 ADD MLOAD SWAP3 POP POP POP SWAP2 SWAP1 POP JUMP JUMPDEST PUSH0 PUSH2 0x45B DUP4 PUSH2 0x1F4 JUMP JUMPDEST SWAP1 POP PUSH0 PUSH20 0xFFFFFFFFFFFFFFFFFFFFFFFFFFFFFFFFFFFFFFFF AND PUSH0 DUP1 DUP4 DUP2 MSTORE PUSH1 0x20 ADD SWAP1 DUP2 MSTORE PUSH1 0x20 ADD PUSH0 KECCAK256 PUSH0 ADD PUSH0 SWAP1 SLOAD SWAP1 PUSH2 0x100 EXP SWAP1 DIV PUSH20 0xFFFFFFFFFFFFFFFFFFFFFFFFFFFFFFFFFFFFFFFF AND PUSH20 0xFFFFFFFFFFFFFFFFFFFFFFFFFFFFFFFFFFFFFFFF AND EQ PUSH2 0x4FC JUMPI PUSH1 0x40 MLOAD PUSH32 0x8C379A000000000000000000000000000000000000000000000000000000000 DUP2 MSTORE PUSH1 0x4 ADD PUSH2 0x4F3 SWAP1 PUSH2 0xDE7 JUMP JUMPDEST PUSH1 0x40 MLOAD DUP1 SWAP2 SUB SWAP1 REVERT JUMPDEST PUSH1 0x1 SLOAD CALLVALUE LT ISZERO PUSH2 0x541 JUMPI PUSH1 0x40 MLOAD PUSH32 0x8C379A000000000000000000000000000000000000000000000000000000000 DUP2 MSTORE PUSH1 0x4 ADD PUSH2 0x538 SWAP1 PUSH2 0xE4F JUMP JUMPDEST PUSH1 0x40 MLOAD DUP1 SWAP2 SUB SWAP1 REVERT JUMPDEST PUSH1 0x2 PUSH0 SWAP1 SLOAD SWAP1 PUSH2 0x100 EXP SWAP1 DIV PUSH20 0xFFFFFFFFFFFFFFFFFFFFFFFFFFFFFFFFFFFFFFFF AND PUSH20 0xFFFFFFFFFFFFFFFFFFFFFFFFFFFFFFFFFFFFFFFF AND PUSH2 0x8FC PUSH1 0x1 SLOAD SWAP1 DUP2 ISZERO MUL SWAP1 PUSH1 0x40 MLOAD PUSH0 PUSH1 0x40 MLOAD DUP1 DUP4 SUB DUP2 DUP6 DUP9 DUP9 CALL SWAP4 POP POP POP POP ISZERO DUP1 ISZERO PUSH2 0x5A7 JUMPI RETURNDATASIZE PUSH0 DUP1 RETURNDATACOPY RETURNDATASIZE PUSH0 REVERT JUMPDEST POP PUSH1 0x40 MLOAD DUP1 PUSH1 0x60 ADD PUSH1 0x40 MSTORE DUP1 CALLER PUSH20 0xFFFFFFFFFFFFFFFFFFFFFFFFFFFFFFFFFFFFFFFF AND DUP2 MSTORE PUSH1 0x20 ADD DUP4 DUP2 MSTORE PUSH1 0x20 ADD PUSH4 0x1E13380 TIMESTAMP PUSH2 0x5E5 SWAP2 SWAP1 PUSH2 0xE9A JUMP JUMPDEST DUP2 MSTORE POP PUSH0 DUP1 DUP4 DUP2 MSTORE PUSH1 0x20 ADD SWAP1 DUP2 MSTORE PUSH1 0x20 ADD PUSH0 KECCAK256 PUSH0 DUP3 ADD MLOAD DUP2 PUSH0 ADD PUSH0 PUSH2 0x100 EXP DUP2 SLOAD DUP2 PUSH20 0xFFFFFFFFFFFFFFFFFFFFFFFFFFFFFFFFFFFFFFFF MUL NOT AND SWAP1 DUP4 PUSH20 0xFFFFFFFFFFFFFFFFFFFFFFFFFFFFFFFFFFFFFFFF AND MUL OR SWAP1 SSTORE POP PUSH1 0x20 DUP3 ADD MLOAD DUP2 PUSH1 0x1 ADD SWAP1 DUP2 PUSH2 0x651 SWAP2 SWAP1 PUSH2 0x106A JUMP JUMPDEST POP PUSH1 0x40 DUP3 ADD MLOAD DUP2 PUSH1 0x2 ADD SSTORE SWAP1 POP POP POP POP POP JUMP JUMPDEST PUSH0 PUSH1 0x20 MSTORE DUP1 PUSH0 MSTORE PUSH1 0x40 PUSH0 KECCAK256 PUSH0 SWAP2 POP SWAP1 POP DUP1 PUSH0 ADD PUSH0 SWAP1 SLOAD SWAP1 PUSH2 0x100 EXP SWAP1 DIV PUSH20 0xFFFFFFFFFFFFFFFFFFFFFFFFFFFFFFFFFFFFFFFF AND SWAP1 DUP1 PUSH1 0x1 ADD DUP1 SLOAD PUSH2 0x6A7 SWAP1 PUSH2 0xD6D JUMP JUMPDEST DUP1 PUSH1 0x1F ADD PUSH1 0x20 DUP1 SWAP2 DIV MUL PUSH1 0x20 ADD PUSH1 0x40 MLOAD SWAP1 DUP2 ADD PUSH1 0x40 MSTORE DUP1 SWAP3 SWAP2 SWAP1 DUP2 DUP2 MSTORE PUSH1 0x20 ADD DUP3 DUP1 SLOAD PUSH2 0x6D3 SWAP1 PUSH2 0xD6D JUMP JUMPDEST DUP1 ISZERO PUSH2 0x71E JUMPI DUP1 PUSH1 0x1F LT PUSH2 0x6F5 JUMPI PUSH2 0x100 DUP1 DUP4 SLOAD DIV MUL DUP4 MSTORE SWAP2 PUSH1 0x20 ADD SWAP2 PUSH2 0x71E JUMP JUMPDEST DUP3 ADD SWAP2 SWAP1 PUSH0 MSTORE PUSH1 0x20 PUSH0 KECCAK256 SWAP1 JUMPDEST DUP2 SLOAD DUP2 MSTORE SWAP1 PUSH1 0x1 ADD SWAP1 PUSH1 0x20 ADD DUP1 DUP4 GT PUSH2 0x701 JUMPI DUP3 SWAP1 SUB PUSH1 0x1F AND DUP3 ADD SWAP2 JUMPDEST POP POP POP POP POP SWAP1 DUP1 PUSH1 0x2 ADD SLOAD SWAP1 POP DUP4 JUMP JUMPDEST PUSH1 0x2 PUSH0 SWAP1 SLOAD SWAP1 PUSH2 0x100 EXP SWAP1 DIV PUSH20 0xFFFFFFFFFFFFFFFFFFFFFFFFFFFFFFFFFFFFFFFF AND DUP2 JUMP JUMPDEST PUSH0 PUSH2 0x75D DUP3 PUSH2 0x1F4 JUMP JUMPDEST SWAP1 POP CALLER PUSH20 0xFFFFFFFFFFFFFFFFFFFFFFFFFFFFFFFFFFFFFFFF AND PUSH0 DUP1 DUP4 DUP2 MSTORE PUSH1 0x20 ADD SWAP1 DUP2 MSTORE PUSH1 0x20 ADD PUSH0 KECCAK256 PUSH0 ADD PUSH0 SWAP1 SLOAD SWAP1 PUSH2 0x100 EXP SWAP1 DIV PUSH20 0xFFFFFFFFFFFFFFFFFFFFFFFFFFFFFFFFFFFFFFFF AND PUSH20 0xFFFFFFFFFFFFFFFFFFFFFFFFFFFFFFFFFFFFFFFF AND EQ PUSH2 0x7FE JUMPI PUSH1 0x40 MLOAD PUSH32 0x8C379A000000000000000000000000000000000000000000000000000000000 DUP2 MSTORE PUSH1 0x4 ADD PUSH2 0x7F5 SWAP1 PUSH2 0xD22 JUMP JUMPDEST PUSH1 0x40 MLOAD DUP1 SWAP2 SUB SWAP1 REVERT JUMPDEST PUSH4 0x1E13380 PUSH0 DUP1 DUP4 DUP2 MSTORE PUSH1 0x20 ADD SWAP1 DUP2 MSTORE PUSH1 0x20 ADD PUSH0 KECCAK256 PUSH1 0x2 ADD PUSH0 DUP3 DUP3 SLOAD PUSH2 0x824 SWAP2 SWAP1 PUSH2 0xE9A JUMP JUMPDEST SWAP3 POP POP DUP2 SWAP1 SSTORE POP POP POP JUMP JUMPDEST PUSH0 PUSH1 0x40 MLOAD SWAP1 POP SWAP1 JUMP JUMPDEST PUSH0 DUP1 REVERT JUMPDEST PUSH0 DUP1 REVERT JUMPDEST PUSH0 DUP1 REVERT JUMPDEST PUSH0 DUP1 REVERT JUMPDEST PUSH0 PUSH1 0x1F NOT PUSH1 0x1F DUP4 ADD AND SWAP1 POP SWAP2 SWAP1 POP JUMP JUMPDEST PUSH32 0x4E487B7100000000000000000000000000000000000000000000000000000000 PUSH0 MSTORE PUSH1 0x41 PUSH1 0x4 MSTORE PUSH1 0x24 PUSH0 REVERT JUMPDEST PUSH2 0x88E DUP3 PUSH2 0x848 JUMP JUMPDEST DUP2 ADD DUP2 DUP2 LT PUSH8 0xFFFFFFFFFFFFFFFF DUP3 GT OR ISZERO PUSH2 0x8AD JUMPI PUSH2 0x8AC PUSH2 0x858 JUMP JUMPDEST JUMPDEST DUP1 PUSH1 0x40 MSTORE POP POP POP JUMP JUMPDEST PUSH0 PUSH2 0x8BF PUSH2 0x82F JUMP JUMPDEST SWAP1 POP PUSH2 0x8CB DUP3 DUP3 PUSH2 0x885 JUMP JUMPDEST SWAP2 SWAP1 POP JUMP JUMPDEST PUSH0 PUSH8 0xFFFFFFFFFFFFFFFF DUP3 GT ISZERO PUSH2 0x8EA JUMPI PUSH2 0x8E9 PUSH2 0x858 JUMP JUMPDEST JUMPDEST PUSH2 0x8F3 DUP3 PUSH2 0x848 JUMP JUMPDEST SWAP1 POP PUSH1 0x20 DUP2 ADD SWAP1 POP SWAP2 SWAP1 POP JUMP JUMPDEST DUP3 DUP2 DUP4 CALLDATACOPY PUSH0 DUP4 DUP4 ADD MSTORE POP POP POP JUMP JUMPDEST PUSH0 PUSH2 0x920 PUSH2 0x91B DUP5 PUSH2 0x8D0 JUMP JUMPDEST PUSH2 0x8B6 JUMP JUMPDEST SWAP1 POP DUP3 DUP2 MSTORE PUSH1 0x20 DUP2 ADD DUP5 DUP5 DUP5 ADD GT ISZERO PUSH2 0x93C JUMPI PUSH2 0x93B PUSH2 0x844 JUMP JUMPDEST JUMPDEST PUSH2 0x947 DUP5 DUP3 DUP6 PUSH2 0x900 JUMP JUMPDEST POP SWAP4 SWAP3 POP POP POP JUMP JUMPDEST PUSH0 DUP3 PUSH1 0x1F DUP4 ADD SLT PUSH2 0x963 JUMPI PUSH2 0x962 PUSH2 0x840 JUMP JUMPDEST JUMPDEST DUP2 CALLDATALOAD PUSH2 0x973 DUP5 DUP3 PUSH1 0x20 DUP7 ADD PUSH2 0x90E JUMP JUMPDEST SWAP2 POP POP SWAP3 SWAP2 POP POP JUMP JUMPDEST PUSH0 PUSH1 0x20 DUP3 DUP5 SUB SLT ISZERO PUSH2 0x991 JUMPI PUSH2 0x990 PUSH2 0x838 JUMP JUMPDEST JUMPDEST PUSH0 DUP3 ADD CALLDATALOAD PUSH8 0xFFFFFFFFFFFFFFFF DUP2 GT ISZERO PUSH2 0x9AE JUMPI PUSH2 0x9AD PUSH2 0x83C JUMP JUMPDEST JUMPDEST PUSH2 0x9BA DUP5 DUP3 DUP6 ADD PUSH2 0x94F JUMP JUMPDEST SWAP2 POP POP SWAP3 SWAP2 POP POP JUMP JUMPDEST PUSH0 DUP2 SWAP1 POP SWAP2 SWAP1 POP JUMP JUMPDEST PUSH2 0x9D5 DUP2 PUSH2 0x9C3 JUMP JUMPDEST DUP3 MSTORE POP POP JUMP JUMPDEST PUSH0 PUSH1 0x20 DUP3 ADD SWAP1 POP PUSH2 0x9EE PUSH0 DUP4 ADD DUP5 PUSH2 0x9CC JUMP JUMPDEST SWAP3 SWAP2 POP POP JUMP JUMPDEST PUSH0 DUP2 SWAP1 POP SWAP2 SWAP1 POP JUMP JUMPDEST PUSH2 0xA06 DUP2 PUSH2 0x9F4 JUMP JUMPDEST DUP3 MSTORE POP POP JUMP JUMPDEST PUSH0 PUSH1 0x20 DUP3 ADD SWAP1 POP PUSH2 0xA1F PUSH0 DUP4 ADD DUP5 PUSH2 0x9FD JUMP JUMPDEST SWAP3 SWAP2 POP POP JUMP JUMPDEST PUSH0 PUSH20 0xFFFFFFFFFFFFFFFFFFFFFFFFFFFFFFFFFFFFFFFF DUP3 AND SWAP1 POP SWAP2 SWAP1 POP JUMP JUMPDEST PUSH0 PUSH2 0xA4E DUP3 PUSH2 0xA25 JUMP JUMPDEST SWAP1 POP SWAP2 SWAP1 POP JUMP JUMPDEST PUSH2 0xA5E DUP2 PUSH2 0xA44 JUMP JUMPDEST DUP2 EQ PUSH2 0xA68 JUMPI PUSH0 DUP1 REVERT JUMPDEST POP JUMP JUMPDEST PUSH0 DUP2 CALLDATALOAD SWAP1 POP PUSH2 0xA79 DUP2 PUSH2 0xA55 JUMP JUMPDEST SWAP3 SWAP2 POP POP JUMP JUMPDEST PUSH0 DUP1 PUSH1 0x40 DUP4 DUP6 SUB SLT ISZERO PUSH2 0xA95 JUMPI PUSH2 0xA94 PUSH2 0x838 JUMP JUMPDEST JUMPDEST PUSH0 DUP4 ADD CALLDATALOAD PUSH8 0xFFFFFFFFFFFFFFFF DUP2 GT ISZERO PUSH2 0xAB2 JUMPI PUSH2 0xAB1 PUSH2 0x83C JUMP JUMPDEST JUMPDEST PUSH2 0xABE DUP6 DUP3 DUP7 ADD PUSH2 0x94F JUMP JUMPDEST SWAP3 POP POP PUSH1 0x20 PUSH2 0xACF DUP6 DUP3 DUP7 ADD PUSH2 0xA6B JUMP JUMPDEST SWAP2 POP POP SWAP3 POP SWAP3 SWAP1 POP JUMP JUMPDEST PUSH0 DUP2 MLOAD SWAP1 POP SWAP2 SWAP1 POP JUMP JUMPDEST PUSH0 DUP3 DUP3 MSTORE PUSH1 0x20 DUP3 ADD SWAP1 POP SWAP3 SWAP2 POP POP JUMP JUMPDEST DUP3 DUP2 DUP4 MCOPY PUSH0 DUP4 DUP4 ADD MSTORE POP POP POP JUMP JUMPDEST PUSH0 PUSH2 0xB0B DUP3 PUSH2 0xAD9 JUMP JUMPDEST PUSH2 0xB15 DUP2 DUP6 PUSH2 0xAE3 JUMP JUMPDEST SWAP4 POP PUSH2 0xB25 DUP2 DUP6 PUSH1 0x20 DUP7 ADD PUSH2 0xAF3 JUMP JUMPDEST PUSH2 0xB2E DUP2 PUSH2 0x848 JUMP JUMPDEST DUP5 ADD SWAP2 POP POP SWAP3 SWAP2 POP POP JUMP JUMPDEST PUSH0 PUSH1 0x20 DUP3 ADD SWAP1 POP DUP2 DUP2 SUB PUSH0 DUP4 ADD MSTORE PUSH2 0xB51 DUP2 DUP5 PUSH2 0xB01 JUMP JUMPDEST SWAP1 POP SWAP3 SWAP2 POP POP JUMP JUMPDEST PUSH0 DUP1 PUSH1 0x40 DUP4 DUP6 SUB SLT ISZERO PUSH2 0xB6F JUMPI PUSH2 0xB6E PUSH2 0x838 JUMP JUMPDEST JUMPDEST PUSH0 DUP4 ADD CALLDATALOAD PUSH8 0xFFFFFFFFFFFFFFFF DUP2 GT ISZERO PUSH2 0xB8C JUMPI PUSH2 0xB8B PUSH2 0x83C JUMP JUMPDEST JUMPDEST PUSH2 0xB98 DUP6 DUP3 DUP7 ADD PUSH2 0x94F JUMP JUMPDEST SWAP3 POP POP PUSH1 0x20 DUP4 ADD CALLDATALOAD PUSH8 0xFFFFFFFFFFFFFFFF DUP2 GT ISZERO PUSH2 0xBB9 JUMPI PUSH2 0xBB8 PUSH2 0x83C JUMP JUMPDEST JUMPDEST PUSH2 0xBC5 DUP6 DUP3 DUP7 ADD PUSH2 0x94F JUMP JUMPDEST SWAP2 POP POP SWAP3 POP SWAP3 SWAP1 POP JUMP JUMPDEST PUSH2 0xBD8 DUP2 PUSH2 0x9C3 JUMP JUMPDEST DUP2 EQ PUSH2 0xBE2 JUMPI PUSH0 DUP1 REVERT JUMPDEST POP JUMP JUMPDEST PUSH0 DUP2 CALLDATALOAD SWAP1 POP PUSH2 0xBF3 DUP2 PUSH2 0xBCF JUMP JUMPDEST SWAP3 SWAP2 POP POP JUMP JUMPDEST PUSH0 PUSH1 0x20 DUP3 DUP5 SUB SLT ISZERO PUSH2 0xC0E JUMPI PUSH2 0xC0D PUSH2 0x838 JUMP JUMPDEST JUMPDEST PUSH0 PUSH2 0xC1B DUP5 DUP3 DUP6 ADD PUSH2 0xBE5 JUMP JUMPDEST SWAP2 POP POP SWAP3 SWAP2 POP POP JUMP JUMPDEST PUSH2 0xC2D DUP2 PUSH2 0xA44 JUMP JUMPDEST DUP3 MSTORE POP POP JUMP JUMPDEST PUSH0 PUSH1 0x60 DUP3 ADD SWAP1 POP PUSH2 0xC46 PUSH0 DUP4 ADD DUP7 PUSH2 0xC24 JUMP JUMPDEST DUP2 DUP2 SUB PUSH1 0x20 DUP4 ADD MSTORE PUSH2 0xC58 DUP2 DUP6 PUSH2 0xB01 JUMP JUMPDEST SWAP1 POP PUSH2 0xC67 PUSH1 0x40 DUP4 ADD DUP5 PUSH2 0x9FD JUMP JUMPDEST SWAP5 SWAP4 POP POP POP POP JUMP JUMPDEST PUSH0 PUSH1 0x20 DUP3 ADD SWAP1 POP PUSH2 0xC82 PUSH0 DUP4 ADD DUP5 PUSH2 0xC24 JUMP JUMPDEST SWAP3 SWAP2 POP POP JUMP JUMPDEST PUSH0 DUP2 SWAP1 POP SWAP3 SWAP2 POP POP JUMP JUMPDEST PUSH0 PUSH2 0xC9C DUP3 PUSH2 0xAD9 JUMP JUMPDEST PUSH2 0xCA6 DUP2 DUP6 PUSH2 0xC88 JUMP JUMPDEST SWAP4 POP PUSH2 0xCB6 DUP2 DUP6 PUSH1 0x20 DUP7 ADD PUSH2 0xAF3 JUMP JUMPDEST DUP1 DUP5 ADD SWAP2 POP POP SWAP3 SWAP2 POP POP JUMP JUMPDEST PUSH0 PUSH2 0xCCD DUP3 DUP5 PUSH2 0xC92 JUMP JUMPDEST SWAP2 POP DUP2 SWAP1 POP SWAP3 SWAP2 POP POP JUMP JUMPDEST PUSH32 0x4E6F7420746865206F776E657200000000000000000000000000000000000000 PUSH0 DUP3 ADD MSTORE POP JUMP JUMPDEST PUSH0 PUSH2 0xD0C PUSH1 0xD DUP4 PUSH2 0xAE3 JUMP JUMPDEST SWAP2 POP PUSH2 0xD17 DUP3 PUSH2 0xCD8 JUMP JUMPDEST PUSH1 0x20 DUP3 ADD SWAP1 POP SWAP2 SWAP1 POP JUMP JUMPDEST PUSH0 PUSH1 0x20 DUP3 ADD SWAP1 POP DUP2 DUP2 SUB PUSH0 DUP4 ADD MSTORE PUSH2 0xD39 DUP2 PUSH2 0xD00 JUMP JUMPDEST SWAP1 POP SWAP2 SWAP1 POP JUMP JUMPDEST PUSH32 0x4E487B7100000000000000000000000000000000000000000000000000000000 PUSH0 MSTORE PUSH1 0x22 PUSH1 0x4 MSTORE PUSH1 0x24 PUSH0 REVERT JUMPDEST PUSH0 PUSH1 0x2 DUP3 DIV SWAP1 POP PUSH1 0x1 DUP3 AND DUP1 PUSH2 0xD84 JUMPI PUSH1 0x7F DUP3 AND SWAP2 POP JUMPDEST PUSH1 0x20 DUP3 LT DUP2 SUB PUSH2 0xD97 JUMPI PUSH2 0xD96 PUSH2 0xD40 JUMP JUMPDEST JUMPDEST POP SWAP2 SWAP1 POP JUMP JUMPDEST PUSH32 0x446F6D61696E20616C7265616479207265676973746572656400000000000000 PUSH0 DUP3 ADD MSTORE POP JUMP JUMPDEST PUSH0 PUSH2 0xDD1 PUSH1 0x19 DUP4 PUSH2 0xAE3 JUMP JUMPDEST SWAP2 POP PUSH2 0xDDC DUP3 PUSH2 0xD9D JUMP JUMPDEST PUSH1 0x20 DUP3 ADD SWAP1 POP SWAP2 SWAP1 POP JUMP JUMPDEST PUSH0 PUSH1 0x20 DUP3 ADD SWAP1 POP DUP2 DUP2 SUB PUSH0 DUP4 ADD MSTORE PUSH2 0xDFE DUP2 PUSH2 0xDC5 JUMP JUMPDEST SWAP1 POP SWAP2 SWAP1 POP JUMP JUMPDEST PUSH32 0x496E73756666696369656E7420726567697374726174696F6E20666565000000 PUSH0 DUP3 ADD MSTORE POP JUMP JUMPDEST PUSH0 PUSH2 0xE39 PUSH1 0x1D DUP4 PUSH2 0xAE3 JUMP JUMPDEST SWAP2 POP PUSH2 0xE44 DUP3 PUSH2 0xE05 JUMP JUMPDEST PUSH1 0x20 DUP3 ADD SWAP1 POP SWAP2 SWAP1 POP JUMP JUMPDEST PUSH0 PUSH1 0x20 DUP3 ADD SWAP1 POP DUP2 DUP2 SUB PUSH0 DUP4 ADD MSTORE PUSH2 0xE66 DUP2 PUSH2 0xE2D JUMP JUMPDEST SWAP1 POP SWAP2 SWAP1 POP JUMP JUMPDEST PUSH32 0x4E487B7100000000000000000000000000000000000000000000000000000000 PUSH0 MSTORE PUSH1 0x11 PUSH1 0x4 MSTORE PUSH1 0x24 PUSH0 REVERT JUMPDEST PUSH0 PUSH2 0xEA4 DUP3 PUSH2 0x9F4 JUMP JUMPDEST SWAP2 POP PUSH2 0xEAF DUP4 PUSH2 0x9F4 JUMP JUMPDEST SWAP3 POP DUP3 DUP3 ADD SWAP1 POP DUP1 DUP3 GT ISZERO PUSH2 0xEC7 JUMPI PUSH2 0xEC6 PUSH2 0xE6D JUMP JUMPDEST JUMPDEST SWAP3 SWAP2 POP POP JUMP JUMPDEST PUSH0 DUP2 SWAP1 POP DUP2 PUSH0 MSTORE PUSH1 0x20 PUSH0 KECCAK256 SWAP1 POP SWAP2 SWAP1 POP JUMP JUMPDEST PUSH0 PUSH1 0x20 PUSH1 0x1F DUP4 ADD DIV SWAP1 POP SWAP2 SWAP1 POP JUMP JUMPDEST PUSH0 DUP3 DUP3 SHL SWAP1 POP SWAP3 SWAP2 POP POP JUMP JUMPDEST PUSH0 PUSH1 0x8 DUP4 MUL PUSH2 0xF29 PUSH32 0xFFFFFFFFFFFFFFFFFFFFFFFFFFFFFFFFFFFFFFFFFFFFFFFFFFFFFFFFFFFFFFFF DUP3 PUSH2 0xEEE JUMP JUMPDEST PUSH2 0xF33 DUP7 DUP4 PUSH2 0xEEE JUMP JUMPDEST SWAP6 POP DUP1 NOT DUP5 AND SWAP4 POP DUP1 DUP7 AND DUP5 OR SWAP3 POP POP POP SWAP4 SWAP3 POP POP POP JUMP JUMPDEST PUSH0 DUP2 SWAP1 POP SWAP2 SWAP1 POP JUMP JUMPDEST PUSH0 PUSH2 0xF6E PUSH2 0xF69 PUSH2 0xF64 DUP5 PUSH2 0x9F4 JUMP JUMPDEST PUSH2 0xF4B JUMP JUMPDEST PUSH2 0x9F4 JUMP JUMPDEST SWAP1 POP SWAP2 SWAP1 POP JUMP JUMPDEST PUSH0 DUP2 SWAP1 POP SWAP2 SWAP1 POP JUMP JUMPDEST PUSH2 0xF87 DUP4 PUSH2 0xF54 JUMP JUMPDEST PUSH2 0xF9B PUSH2 0xF93 DUP3 PUSH2 0xF75 JUMP JUMPDEST DUP5 DUP5 SLOAD PUSH2 0xEFA JUMP JUMPDEST DUP3 SSTORE POP POP POP POP JUMP JUMPDEST PUSH0 SWAP1 JUMP JUMPDEST PUSH2 0xFAF PUSH2 0xFA3 JUMP JUMPDEST PUSH2 0xFBA DUP2 DUP5 DUP5 PUSH2 0xF7E JUMP JUMPDEST POP POP POP JUMP JUMPDEST JUMPDEST DUP2 DUP2 LT ISZERO PUSH2 0xFDD JUMPI PUSH2 0xFD2 PUSH0 DUP3 PUSH2 0xFA7 JUMP JUMPDEST PUSH1 0x1 DUP2 ADD SWAP1 POP PUSH2 0xFC0 JUMP JUMPDEST POP POP JUMP JUMPDEST PUSH1 0x1F DUP3 GT ISZERO PUSH2 0x1022 JUMPI PUSH2 0xFF3 DUP2 PUSH2 0xECD JUMP JUMPDEST PUSH2 0xFFC DUP5 PUSH2 0xEDF JUMP JUMPDEST DUP2 ADD PUSH1 0x20 DUP6 LT ISZERO PUSH2 0x100B JUMPI DUP2 SWAP1 POP JUMPDEST PUSH2 0x101F PUSH2 0x1017 DUP6 PUSH2 0xEDF JUMP JUMPDEST DUP4 ADD DUP3 PUSH2 0xFBF JUMP JUMPDEST POP POP JUMPDEST POP POP POP JUMP JUMPDEST PUSH0 DUP3 DUP3 SHR SWAP1 POP SWAP3 SWAP2 POP POP JUMP JUMPDEST PUSH0 PUSH2 0x1042 PUSH0 NOT DUP5 PUSH1 0x8 MUL PUSH2 0x1027 JUMP JUMPDEST NOT DUP1 DUP4 AND SWAP2 POP POP SWAP3 SWAP2 POP POP JUMP JUMPDEST PUSH0 PUSH2 0x105A DUP4 DUP4 PUSH2 0x1033 JUMP JUMPDEST SWAP2 POP DUP3 PUSH1 0x2 MUL DUP3 OR SWAP1 POP SWAP3 SWAP2 POP POP JUMP JUMPDEST PUSH2 0x1073 DUP3 PUSH2 0xAD9 JUMP JUMPDEST PUSH8 0xFFFFFFFFFFFFFFFF DUP2 GT ISZERO PUSH2 0x108C JUMPI PUSH2 0x108B PUSH2 0x858 JUMP JUMPDEST JUMPDEST PUSH2 0x1096 DUP3 SLOAD PUSH2 0xD6D JUMP JUMPDEST PUSH2 0x10A1 DUP3 DUP3 DUP6 PUSH2 0xFE1 JUMP JUMPDEST PUSH0 PUSH1 0x20 SWAP1 POP PUSH1 0x1F DUP4 GT PUSH1 0x1 DUP2 EQ PUSH2 0x10D2 JUMPI PUSH0 DUP5 ISZERO PUSH2 0x10C0 JUMPI DUP3 DUP8 ADD MLOAD SWAP1 POP JUMPDEST PUSH2 0x10CA DUP6 DUP3 PUSH2 0x104F JUMP JUMPDEST DUP7 SSTORE POP PUSH2 0x1131 JUMP JUMPDEST PUSH1 0x1F NOT DUP5 AND PUSH2 0x10E0 DUP7 PUSH2 0xECD JUMP JUMPDEST PUSH0 JUMPDEST DUP3 DUP2 LT ISZERO PUSH2 0x1107 JUMPI DUP5 DUP10 ADD MLOAD DUP3 SSTORE PUSH1 0x1 DUP3 ADD SWAP2 POP PUSH1 0x20 DUP6 ADD SWAP5 POP PUSH1 0x20 DUP2 ADD SWAP1 POP PUSH2 0x10E2 JUMP JUMPDEST DUP7 DUP4 LT ISZERO PUSH2 0x1124 JUMPI DUP5 DUP10 ADD MLOAD PUSH2 0x1120 PUSH1 0x1F DUP10 AND DUP3 PUSH2 0x1033 JUMP JUMPDEST DUP4 SSTORE POP JUMPDEST PUSH1 0x1 PUSH1 0x2 DUP9 MUL ADD DUP9 SSTORE POP POP POP JUMPDEST POP POP POP POP POP POP JUMP INVALID LOG2 PUSH5 0x6970667358 0x22 SLT KECCAK256 CREATE2 0xCB INVALID PUSH4 0x19D1BCD0 SWAP11 0xB7 0x4E 0xA9 SWAP4 PUSH32 0xE8B67F78414B740822B9C2353822863CB6ED64736F6C634300081A0033000000 "
				},
				"gasEstimates": {
					"creation": {
						"codeDepositCost": "892600",
						"executionCost": "47298",
						"totalCost": "939898"
					},
					"external": {
						"contractOwner()": "2552",
						"domains(bytes32)": "infinite",
						"namehash(string)": "infinite",
						"registerDomain(string,string)": "infinite",
						"registrationFee()": "2448",
						"renewDomain(string)": "infinite",
						"resolveDomain(string)": "infinite",
						"transferDomain(string,address)": "infinite"
					}
				},
				"methodIdentifiers": {
					"contractOwner()": "ce606ee0",
					"domains(bytes32)": "c722f177",
					"namehash(string)": "09879962",
					"registerDomain(string,string)": "87a3d555",
					"registrationFee()": "14c44e09",
					"renewDomain(string)": "f5fb9de3",
					"resolveDomain(string)": "364460f3",
					"transferDomain(string,address)": "19fbe87e"
				}
			},
			"storageLayout": {
				"storage": [
					{
						"astId": 13,
						"contract": "dns.sol:DomainRegistry",
						"label": "domains",
						"offset": 0,
						"slot": "0",
						"type": "t_mapping(t_bytes32,t_struct(Domain)8_storage)"
					},
					{
						"astId": 16,
						"contract": "dns.sol:DomainRegistry",
						"label": "registrationFee",
						"offset": 0,
						"slot": "1",
						"type": "t_uint256"
					},
					{
						"astId": 18,
						"contract": "dns.sol:DomainRegistry",
						"label": "contractOwner",
						"offset": 0,
						"slot": "2",
						"type": "t_address"
					}
				],
				"types": {
					"t_address": {
						"encoding": "inplace",
						"label": "address",
						"numberOfBytes": "20"
					},
					"t_bytes32": {
						"encoding": "inplace",
						"label": "bytes32",
						"numberOfBytes": "32"
					},
					"t_mapping(t_bytes32,t_struct(Domain)8_storage)": {
						"encoding": "mapping",
						"key": "t_bytes32",
						"label": "mapping(bytes32 => struct DomainRegistry.Domain)",
						"numberOfBytes": "32",
						"value": "t_struct(Domain)8_storage"
					},
					"t_string_storage": {
						"encoding": "bytes",
						"label": "string",
						"numberOfBytes": "32"
					},
					"t_struct(Domain)8_storage": {
						"encoding": "inplace",
						"label": "struct DomainRegistry.Domain",
						"members": [
							{
								"astId": 3,
								"contract": "dns.sol:DomainRegistry",
								"label": "owner",
								"offset": 0,
								"slot": "0",
								"type": "t_address"
							},
							{
								"astId": 5,
								"contract": "dns.sol:DomainRegistry",
								"label": "ipv4",
								"offset": 0,
								"slot": "1",
								"type": "t_string_storage"
							},
							{
								"astId": 7,
								"contract": "dns.sol:DomainRegistry",
								"label": "expiration",
								"offset": 0,
								"slot": "2",
								"type": "t_uint256"
							}
						],
						"numberOfBytes": "96"
					},
					"t_uint256": {
						"encoding": "inplace",
						"label": "uint256",
						"numberOfBytes": "32"
					}
				}
			},
			"userdoc": {
				"kind": "user",
				"methods": {},
				"version": 1
			}
		}
	}
}