{
  "_format": "hh-sol-artifact-1",
  "contractName": "DomainRegistry",
  "sourceName": "contracts/dns.sol",
  "abi": [
    {
      "inputs": [],
      "name": "contractOwner",
      "outputs": [
        {
          "internalType": "address",
          "name": "",
          "type": "address"
        }
      ],
      "stateMutability": "view",
      "type": "function"
    },
    {
      "inputs": [
        {
          "internalType": "bytes32",
          "name": "",
          "type": "bytes32"
        }
      ],
      "name": "domains",
      "outputs": [
        {
          "internalType": "address",
          "name": "owner",
          "type": "address"
        },
        {
          "internalType": "string",
          "name": "ipv4",
          "type": "string"
        },
        {
          "internalType": "uint256",
          "name": "expiration",
          "type": "uint256"
        }
      ],
      "stateMutability": "view",
      "type": "function"
    },
    {
      "inputs": [
        {
          "internalType": "string",
          "name": "domain",
          "type": "string"
        }
      ],
      "name": "namehash",
      "outputs": [
        {
          "internalType": "bytes32",
          "name": "",
          "type": "bytes32"
        }
      ],
      "stateMutability": "pure",
      "type": "function"
    },
    {
      "inputs": [
        {
          "internalType": "string",
          "name": "domain",
          "type": "string"
        },
        {
          "internalType": "string",
          "name": "ipv4",
          "type": "string"
        }
      ],
      "name": "registerDomain",
      "outputs": [],
      "stateMutability": "payable",
      "type": "function"
    },
    {
      "inputs": [
        {
          "internalType": "string",
          "name": "domain",
          "type": "string"
        }
      ],
      "name": "renewDomain",
      "outputs": [],
      "stateMutability": "nonpayable",
      "type": "function"
    },
    {
      "inputs": [
        {
          "internalType": "string",
          "name": "domain",
          "type": "string"
        }
      ],
      "name": "resolveDomain",
      "outputs": [
        {
          "internalType": "string",
          "name": "",
          "type": "string"
        }
      ],
      "stateMutability": "view",
      "type": "function"
    },
    {
      "inputs": [
        {
          "internalType": "string",
          "name": "domain",
          "type": "string"
        },
        {
          "internalType": "address",
          "name": "newOwner",
          "type": "address"
        }
      ],
      "name": "transferDomain",
      "outputs": [],
      "stateMutability": "nonpayable",
      "type": "function"
    }
  ],
  "bytecode": "0x6080604052348015600f57600080fd5b506110a48061001f6000396000f3fe6080604052600436106100705760003560e01c806387a3d5551161004e57806387a3d55514610118578063c722f17714610134578063ce606ee014610173578063f5fb9de31461019e57610070565b8063098799621461007557806319fbe87e146100b2578063364460f3146100db575b600080fd5b34801561008157600080fd5b5061009c600480360381019061009791906108d8565b6101c7565b6040516100a9919061093a565b60405180910390f35b3480156100be57600080fd5b506100d960048036038101906100d491906109b3565b6101f7565b005b3480156100e757600080fd5b5061010260048036038101906100fd91906108d8565b610300565b60405161010f9190610a8e565b60405180910390f35b610132600480360381019061012d9190610ab0565b610430565b005b34801561014057600080fd5b5061015b60048036038101906101569190610b54565b6105a2565b60405161016a93929190610ba9565b60405180910390f35b34801561017f57600080fd5b50610188610674565b6040516101959190610be7565b60405180910390f35b3480156101aa57600080fd5b506101c560048036038101906101c091906108d8565b61069a565b005b6000816040516020016101da9190610c3e565b604051602081830303815290604052805190602001209050919050565b6000610202836101c7565b90503373ffffffffffffffffffffffffffffffffffffffff1660008083815260200190815260200160002060000160009054906101000a900473ffffffffffffffffffffffffffffffffffffffff1673ffffffffffffffffffffffffffffffffffffffff16146102a7576040517f08c379a000000000000000000000000000000000000000000000000000000000815260040161029e90610ca1565b60405180910390fd5b8160008083815260200190815260200160002060000160006101000a81548173ffffffffffffffffffffffffffffffffffffffff021916908373ffffffffffffffffffffffffffffffffffffffff160217905550505050565b6060600061030d836101c7565b905060008060008381526020019081526020016000206040518060600160405290816000820160009054906101000a900473ffffffffffffffffffffffffffffffffffffffff1673ffffffffffffffffffffffffffffffffffffffff1673ffffffffffffffffffffffffffffffffffffffff16815260200160018201805461039490610cf0565b80601f01602080910402602001604051908101604052809291908181526020018280546103c090610cf0565b801561040d5780601f106103e25761010080835404028352916020019161040d565b820191906000526020600020905b8154815290600101906020018083116103f057829003601f168201915b505050505081526020016002820154815250509050806020015192505050919050565b600061043b836101c7565b9050600073ffffffffffffffffffffffffffffffffffffffff1660008083815260200190815260200160002060000160009054906101000a900473ffffffffffffffffffffffffffffffffffffffff1673ffffffffffffffffffffffffffffffffffffffff16146104e1576040517f08c379a00000000000000000000000000000000000000000000000000000000081526004016104d890610d6d565b60405180910390fd5b60405180606001604052803373ffffffffffffffffffffffffffffffffffffffff1681526020018381526020016301e133804261051e9190610dbc565b81525060008083815260200190815260200160002060008201518160000160006101000a81548173ffffffffffffffffffffffffffffffffffffffff021916908373ffffffffffffffffffffffffffffffffffffffff160217905550602082015181600101908161058f9190610f9c565b5060408201518160020155905050505050565b60006020528060005260406000206000915090508060000160009054906101000a900473ffffffffffffffffffffffffffffffffffffffff16908060010180546105eb90610cf0565b80601f016020809104026020016040519081016040528092919081815260200182805461061790610cf0565b80156106645780601f1061063957610100808354040283529160200191610664565b820191906000526020600020905b81548152906001019060200180831161064757829003601f168201915b5050505050908060020154905083565b600160009054906101000a900473ffffffffffffffffffffffffffffffffffffffff1681565b60006106a5826101c7565b90503373ffffffffffffffffffffffffffffffffffffffff1660008083815260200190815260200160002060000160009054906101000a900473ffffffffffffffffffffffffffffffffffffffff1673ffffffffffffffffffffffffffffffffffffffff161461074a576040517f08c379a000000000000000000000000000000000000000000000000000000000815260040161074190610ca1565b60405180910390fd5b6301e1338060008083815260200190815260200160002060020160008282546107739190610dbc565b925050819055505050565b6000604051905090565b600080fd5b600080fd5b600080fd5b600080fd5b6000601f19601f8301169050919050565b7f4e487b7100000000000000000000000000000000000000000000000000000000600052604160045260246000fd5b6107e58261079c565b810181811067ffffffffffffffff82111715610804576108036107ad565b5b80604052505050565b600061081761077e565b905061082382826107dc565b919050565b600067ffffffffffffffff821115610843576108426107ad565b5b61084c8261079c565b9050602081019050919050565b82818337600083830152505050565b600061087b61087684610828565b61080d565b90508281526020810184848401111561089757610896610797565b5b6108a2848285610859565b509392505050565b600082601f8301126108bf576108be610792565b5b81356108cf848260208601610868565b91505092915050565b6000602082840312156108ee576108ed610788565b5b600082013567ffffffffffffffff81111561090c5761090b61078d565b5b610918848285016108aa565b91505092915050565b6000819050919050565b61093481610921565b82525050565b600060208201905061094f600083018461092b565b92915050565b600073ffffffffffffffffffffffffffffffffffffffff82169050919050565b600061098082610955565b9050919050565b61099081610975565b811461099b57600080fd5b50565b6000813590506109ad81610987565b92915050565b600080604083850312156109ca576109c9610788565b5b600083013567ffffffffffffffff8111156109e8576109e761078d565b5b6109f4858286016108aa565b9250506020610a058582860161099e565b9150509250929050565b600081519050919050565b600082825260208201905092915050565b60005b83811015610a49578082015181840152602081019050610a2e565b60008484015250505050565b6000610a6082610a0f565b610a6a8185610a1a565b9350610a7a818560208601610a2b565b610a838161079c565b840191505092915050565b60006020820190508181036000830152610aa88184610a55565b905092915050565b60008060408385031215610ac757610ac6610788565b5b600083013567ffffffffffffffff811115610ae557610ae461078d565b5b610af1858286016108aa565b925050602083013567ffffffffffffffff811115610b1257610b1161078d565b5b610b1e858286016108aa565b9150509250929050565b610b3181610921565b8114610b3c57600080fd5b50565b600081359050610b4e81610b28565b92915050565b600060208284031215610b6a57610b69610788565b5b6000610b7884828501610b3f565b91505092915050565b610b8a81610975565b82525050565b6000819050919050565b610ba381610b90565b82525050565b6000606082019050610bbe6000830186610b81565b8181036020830152610bd08185610a55565b9050610bdf6040830184610b9a565b949350505050565b6000602082019050610bfc6000830184610b81565b92915050565b600081905092915050565b6000610c1882610a0f565b610c228185610c02565b9350610c32818560208601610a2b565b80840191505092915050565b6000610c4a8284610c0d565b915081905092915050565b7f4e6f7420746865206f776e657200000000000000000000000000000000000000600082015250565b6000610c8b600d83610a1a565b9150610c9682610c55565b602082019050919050565b60006020820190508181036000830152610cba81610c7e565b9050919050565b7f4e487b7100000000000000000000000000000000000000000000000000000000600052602260045260246000fd5b60006002820490506001821680610d0857607f821691505b602082108103610d1b57610d1a610cc1565b5b50919050565b7f446f6d61696e20616c7265616479207265676973746572656400000000000000600082015250565b6000610d57601983610a1a565b9150610d6282610d21565b602082019050919050565b60006020820190508181036000830152610d8681610d4a565b9050919050565b7f4e487b7100000000000000000000000000000000000000000000000000000000600052601160045260246000fd5b6000610dc782610b90565b9150610dd283610b90565b9250828201905080821115610dea57610de9610d8d565b5b92915050565b60008190508160005260206000209050919050565b60006020601f8301049050919050565b600082821b905092915050565b600060088302610e527fffffffffffffffffffffffffffffffffffffffffffffffffffffffffffffffff82610e15565b610e5c8683610e15565b95508019841693508086168417925050509392505050565b6000819050919050565b6000610e99610e94610e8f84610b90565b610e74565b610b90565b9050919050565b6000819050919050565b610eb383610e7e565b610ec7610ebf82610ea0565b848454610e22565b825550505050565b600090565b610edc610ecf565b610ee7818484610eaa565b505050565b5b81811015610f0b57610f00600082610ed4565b600181019050610eed565b5050565b601f821115610f5057610f2181610df0565b610f2a84610e05565b81016020851015610f39578190505b610f4d610f4585610e05565b830182610eec565b50505b505050565b600082821c905092915050565b6000610f7360001984600802610f55565b1980831691505092915050565b6000610f8c8383610f62565b9150826002028217905092915050565b610fa582610a0f565b67ffffffffffffffff811115610fbe57610fbd6107ad565b5b610fc88254610cf0565b610fd3828285610f0f565b600060209050601f8311600181146110065760008415610ff4578287015190505b610ffe8582610f80565b865550611066565b601f19841661101486610df0565b60005b8281101561103c57848901518255600182019150602085019450602081019050611017565b868310156110595784890151611055601f891682610f62565b8355505b6001600288020188555050505b50505050505056fea264697066735822122001ea214aa134d543194bd19b99697020727077c78d7878a1b9c3de9463ae1e6864736f6c634300081c0033",
  "linkReferences": {},
  "deployedLinkReferences": {}
}